{
  "contractName": "Health",
  "abi": [
    {
      "constant": true,
      "inputs": [
        {
          "name": "",
          "type": "uint256"
        }
      ],
      "name": "doctors",
      "outputs": [
        {
          "name": "id",
          "type": "uint256"
        },
        {
          "name": "name",
          "type": "string"
        },
        {
          "name": "hospital",
          "type": "string"
        }
      ],
      "payable": false,
      "stateMutability": "view",
      "type": "function"
    },
    {
      "constant": true,
      "inputs": [
        {
          "name": "",
          "type": "uint256"
        }
      ],
      "name": "patients",
      "outputs": [
        {
          "name": "id",
          "type": "uint256"
        },
        {
          "name": "name",
          "type": "string"
        },
        {
          "name": "age",
          "type": "uint256"
        },
        {
          "name": "nationality",
          "type": "string"
        },
        {
          "name": "city",
          "type": "string"
        },
        {
          "name": "country",
          "type": "string"
        },
        {
          "name": "balance",
          "type": "uint256"
        }
      ],
      "payable": false,
      "stateMutability": "view",
      "type": "function"
    },
    {
      "constant": true,
      "inputs": [],
      "name": "patientsCount",
      "outputs": [
        {
          "name": "",
          "type": "uint256"
        }
      ],
      "payable": false,
      "stateMutability": "view",
      "type": "function"
    },
    {
      "inputs": [],
      "payable": false,
      "stateMutability": "nonpayable",
      "type": "constructor"
    },
    {
      "constant": false,
      "inputs": [
        {
          "name": "_name",
          "type": "string"
        },
        {
          "name": "_age",
          "type": "uint256"
        },
        {
          "name": "_nationality",
          "type": "string"
        },
        {
          "name": "_city",
          "type": "string"
        },
        {
          "name": "_country",
          "type": "string"
        }
      ],
      "name": "addPatient",
      "outputs": [],
      "payable": false,
      "stateMutability": "nonpayable",
      "type": "function"
    }
  ],
  "bytecode": "0x6060604052341561000f57600080fd5b600060028190555061010c6040805190810160405280600381526020017f42656e000000000000000000000000000000000000000000000000000000000081525060116040805190810160405280600681526020017f43616e61646100000000000000000000000000000000000000000000000000008152506040805190810160405280600781526020017f546f726f6e746f000000000000000000000000000000000000000000000000008152506040805190810160405280600681526020017f43616e616461000000000000000000000000000000000000000000000000000081525061020664010000000002610599176401000000009004565b6102016040805190810160405280600481526020017f4164616d0000000000000000000000000000000000000000000000000000000081525060166040805190810160405280600681526020017f4672616e636500000000000000000000000000000000000000000000000000008152506040805190810160405280600581526020017f50617269730000000000000000000000000000000000000000000000000000008152506040805190810160405280600781526020017f4765726d616e790000000000000000000000000000000000000000000000000081525061020664010000000002610599176401000000009004565b6103a5565b60026000815480929190600101919050555060e0604051908101604052806002548152602001868152602001858152602001848152602001838152602001828152602001600081525060016000600254815260200190815260200160002060008201518160000155602082015181600101908051906020019061028a929190610300565b506040820151816002015560608201518160030190805190602001906102b1929190610300565b5060808201518160040190805190602001906102ce929190610300565b5060a08201518160050190805190602001906102eb929190610300565b5060c082015181600601559050505050505050565b828054600181600116156101000203166002900490600052602060002090601f016020900481019282601f1061034157805160ff191683800117855561036f565b8280016001018555821561036f579182015b8281111561036e578251825591602001919060010190610353565b5b50905061037c9190610380565b5090565b6103a291905b8082111561039e576000816000905550600101610386565b5090565b90565b6107a8806103b46000396000f300606060405260043610610062576000357c0100000000000000000000000000000000000000000000000000000000900463ffffffff1680636efb1b8414610067578063890d9fea146101b057806393119a83146102df578063b6b1289d14610548575b600080fd5b341561007257600080fd5b6100886004808035906020019091905050610571565b60405180848152602001806020018060200183810383528581815460018160011615610100020316600290048152602001915080546001816001161561010002031660029004801561011b5780601f106100f05761010080835404028352916020019161011b565b820191906000526020600020905b8154815290600101906020018083116100fe57829003601f168201915b505083810382528481815460018160011615610100020316600290048152602001915080546001816001161561010002031660029004801561019e5780601f106101735761010080835404028352916020019161019e565b820191906000526020600020905b81548152906001019060200180831161018157829003601f168201915b50509550505050505060405180910390f35b34156101bb57600080fd5b6102dd600480803590602001908201803590602001908080601f0160208091040260200160405190810160405280939291908181526020018383808284378201915050505050509190803590602001909190803590602001908201803590602001908080601f0160208091040260200160405190810160405280939291908181526020018383808284378201915050505050509190803590602001908201803590602001908080601f0160208091040260200160405190810160405280939291908181526020018383808284378201915050505050509190803590602001908201803590602001908080601f01602080910402602001604051908101604052809392919081815260200183838082843782019150505050505091905050610599565b005b34156102ea57600080fd5b6103006004808035906020019091905050610693565b604051808881526020018060200187815260200180602001806020018060200186815260200185810385528b8181546001816001161561010002031660029004815260200191508054600181600116156101000203166002900480156103a75780601f1061037c576101008083540402835291602001916103a7565b820191906000526020600020905b81548152906001019060200180831161038a57829003601f168201915b505085810384528981815460018160011615610100020316600290048152602001915080546001816001161561010002031660029004801561042a5780601f106103ff5761010080835404028352916020019161042a565b820191906000526020600020905b81548152906001019060200180831161040d57829003601f168201915b50508581038352888181546001816001161561010002031660029004815260200191508054600181600116156101000203166002900480156104ad5780601f10610482576101008083540402835291602001916104ad565b820191906000526020600020905b81548152906001019060200180831161049057829003601f168201915b50508581038252878181546001816001161561010002031660029004815260200191508054600181600116156101000203166002900480156105305780601f1061050557610100808354040283529160200191610530565b820191906000526020600020905b81548152906001019060200180831161051357829003601f168201915b50509b50505050505050505050505060405180910390f35b341561055357600080fd5b61055b6106d1565b6040518082815260200191505060405180910390f35b6000602052806000526040600020600091509050806000015490806001019080600201905083565b60026000815480929190600101919050555060e0604051908101604052806002548152602001868152602001858152602001848152602001838152602001828152602001600081525060016000600254815260200190815260200160002060008201518160000155602082015181600101908051906020019061061d9291906106d7565b506040820151816002015560608201518160030190805190602001906106449291906106d7565b5060808201518160040190805190602001906106619291906106d7565b5060a082015181600501908051906020019061067e9291906106d7565b5060c082015181600601559050505050505050565b600160205280600052604060002060009150905080600001549080600101908060020154908060030190806004019080600501908060060154905087565b60025481565b828054600181600116156101000203166002900490600052602060002090601f016020900481019282601f1061071857805160ff1916838001178555610746565b82800160010185558215610746579182015b8281111561074557825182559160200191906001019061072a565b5b5090506107539190610757565b5090565b61077991905b8082111561077557600081600090555060010161075d565b5090565b905600a165627a7a72305820c585dac7d452239e8443333572fe8879e0f4630b8600f2cc373daaffac0d18dd0029",
  "source": "pragma solidity ^0.4.2;\r\n// pragma experimental ABIEncoderV2;\r\n\r\ncontract Health {\r\n    struct Patient {\r\n        uint id;\r\n        string name;\r\n        uint age;\r\n        string nationality;\r\n        string city;\r\n        string country;\r\n        uint balance;\r\n        mapping(string => Disease) diseases;\r\n    }\r\n\r\n    struct Disease {\r\n        string name;\r\n        string[] symptoms;\r\n        uint doctore;\r\n        uint date;\r\n        uint price;\r\n    }\r\n\r\n    struct Doctor {\r\n        uint id;\r\n        string name;\r\n        string hospital;\r\n    }\r\n    \r\n    mapping (uint => Doctor) public doctors;\r\n    mapping (uint => Patient) public patients;\r\n    uint public patientsCount;\r\n\r\n    // Constructor\r\n    function Health() public {\r\n        patientsCount = 0;\r\n        addPatient(\"Ben\", 17, \"Canada\", \"Toronto\", \"Canada\");\r\n        addPatient(\"Adam\", 22, \"France\", \"Paris\", \"Germany\");\r\n    }\r\n    // addPateint\r\n    function addPatient(string _name, uint _age, string _nationality, string _city, string _country) public {\r\n        patientsCount++;\r\n        patients[patientsCount] = Patient(patientsCount, _name, _age,\r\n                                          _nationality, _city, _country, 0);\r\n    }\r\n    \r\n    // modifyPatient\r\n}\r\n\r\n// contract BuyRecord is EditRecord {\r\n//     // Query patiences WIP\r\n//     function getPatientsPrice(string _disease) private view returns (uint) {\r\n//         uint buyingPrice;\r\n//         for (uint x = 1; x <= patientsCount; x++) {\r\n//             buyingPrice += patients[x].diseases[_disease].price;\r\n//         }\r\n//         return buyingPrice;\r\n//     }\r\n\r\n//     Buy Patiences data\r\n//     function buyPatientsData(string _disease) public returns (uint price, uint numberOfPatients, string[] diseaseCountries, string[] diseaseCities) {\r\n//         for (uint i = 0; i <= patientsCount; i++) {\r\n//             if (patients[i].diseases[_disease].name != \"\") {\r\n//                 price += patients[i].diseases[_disease].price;\r\n//                 numberOfPatients += 1;\r\n//                 diseaseCountries.push(patients[i].country);\r\n//                 diseaseCities.push(patients[i].city);\r\n//             }\r\n//         }\r\n//     }\r\n// }\r\n",
  "sourcePath": "D:\\Dev\\Git\\hexchain\\contracts\\Health.sol",
  "compiler": {
    "name": "solc",
    "version": "0.4.19+commit.c4cbbb05.Emscripten.clang"
  },
  "schemaVersion": "2.0.0",
  "updatedAt": "2018-03-17T09:07:25.331Z"
}