{
  "contractName": "Health",
  "abi": [
    {
      "constant": true,
      "inputs": [],
      "name": "diseasesCount",
      "outputs": [
        {
          "name": "",
          "type": "uint256"
        }
      ],
      "payable": false,
      "stateMutability": "view",
      "type": "function"
    },
    {
      "constant": true,
      "inputs": [],
      "name": "doctorsCount",
      "outputs": [
        {
          "name": "",
          "type": "uint256"
        }
      ],
      "payable": false,
      "stateMutability": "view",
      "type": "function"
    },
    {
      "constant": true,
      "inputs": [
        {
          "name": "",
          "type": "uint256"
        }
      ],
      "name": "diseases",
      "outputs": [
        {
          "name": "id",
          "type": "uint256"
        },
        {
          "name": "name",
          "type": "string"
        },
        {
          "name": "symptoms",
          "type": "string"
        },
        {
          "name": "doctor",
          "type": "string"
        },
        {
          "name": "date",
          "type": "uint256"
        },
        {
          "name": "price",
          "type": "uint256"
        }
      ],
      "payable": false,
      "stateMutability": "view",
      "type": "function"
    },
    {
      "constant": true,
      "inputs": [
        {
          "name": "",
          "type": "uint256"
        }
      ],
      "name": "doctors",
      "outputs": [
        {
          "name": "id",
          "type": "uint256"
        },
        {
          "name": "name",
          "type": "string"
        },
        {
          "name": "hospital",
          "type": "string"
        }
      ],
      "payable": false,
      "stateMutability": "view",
      "type": "function"
    },
    {
      "constant": true,
      "inputs": [
        {
          "name": "",
          "type": "uint256"
        }
      ],
      "name": "patients",
      "outputs": [
        {
          "name": "id",
          "type": "uint256"
        },
        {
          "name": "name",
          "type": "string"
        },
        {
          "name": "age",
          "type": "uint256"
        },
        {
          "name": "nationality",
          "type": "string"
        },
        {
          "name": "city",
          "type": "string"
        },
        {
          "name": "country",
          "type": "string"
        },
        {
          "name": "balance",
          "type": "uint256"
        },
        {
          "name": "patientDiseasesCount",
          "type": "uint256"
        }
      ],
      "payable": false,
      "stateMutability": "view",
      "type": "function"
    },
    {
      "constant": true,
      "inputs": [],
      "name": "patientsCount",
      "outputs": [
        {
          "name": "",
          "type": "uint256"
        }
      ],
      "payable": false,
      "stateMutability": "view",
      "type": "function"
    },
    {
      "inputs": [],
      "payable": false,
      "stateMutability": "nonpayable",
      "type": "constructor"
    },
    {
      "constant": false,
      "inputs": [
        {
          "name": "_name",
          "type": "string"
        },
        {
          "name": "_age",
          "type": "uint256"
        },
        {
          "name": "_nationality",
          "type": "string"
        },
        {
          "name": "_city",
          "type": "string"
        },
        {
          "name": "_country",
          "type": "string"
        }
      ],
      "name": "addPatient",
      "outputs": [],
      "payable": false,
      "stateMutability": "nonpayable",
      "type": "function"
    },
    {
      "constant": false,
      "inputs": [
        {
          "name": "_name",
          "type": "string"
        },
        {
          "name": "_symptoms",
          "type": "string"
        },
        {
          "name": "_doctor",
          "type": "string"
        }
      ],
      "name": "addDisease",
      "outputs": [],
      "payable": false,
      "stateMutability": "nonpayable",
      "type": "function"
    },
    {
      "constant": false,
      "inputs": [
        {
          "name": "_patientName",
          "type": "string"
        },
        {
          "name": "_name",
          "type": "string"
        },
        {
          "name": "_symptoms",
          "type": "string"
        },
        {
          "name": "_doctor",
          "type": "string"
        }
      ],
      "name": "addDiseaseToPatient",
      "outputs": [
        {
          "name": "",
          "type": "bool"
        }
      ],
      "payable": false,
      "stateMutability": "nonpayable",
      "type": "function"
    },
    {
      "constant": false,
      "inputs": [
        {
          "name": "_id",
          "type": "uint256"
        }
      ],
      "name": "getPatientDiseases",
      "outputs": [
        {
          "name": "",
          "type": "uint256[5]"
        }
      ],
      "payable": false,
      "stateMutability": "nonpayable",
      "type": "function"
    },
    {
      "constant": false,
      "inputs": [
        {
          "name": "_name",
          "type": "string"
        },
        {
          "name": "_hospital",
          "type": "string"
        }
      ],
      "name": "addDoctor",
      "outputs": [],
      "payable": false,
      "stateMutability": "nonpayable",
      "type": "function"
    },
    {
      "constant": false,
      "inputs": [
        {
          "name": "_id",
          "type": "uint256"
        },
        {
          "name": "_name",
          "type": "string"
        },
        {
          "name": "_age",
          "type": "uint256"
        },
        {
          "name": "_nationality",
          "type": "string"
        },
        {
          "name": "_city",
          "type": "string"
        },
        {
          "name": "_country",
          "type": "string"
        },
        {
          "name": "_balance",
          "type": "uint256"
        }
      ],
      "name": "editPatient",
      "outputs": [
        {
          "name": "",
          "type": "bool"
        }
      ],
      "payable": false,
      "stateMutability": "nonpayable",
      "type": "function"
    },
    {
      "constant": false,
      "inputs": [
        {
          "name": "_id",
          "type": "uint256"
        }
      ],
      "name": "getPatientDiseasesIds",
      "outputs": [
        {
          "name": "",
          "type": "uint256[5]"
        }
      ],
      "payable": false,
      "stateMutability": "nonpayable",
      "type": "function"
    },
    {
      "constant": false,
      "inputs": [
        {
          "name": "_name",
          "type": "string"
        }
      ],
      "name": "getPatientIdByName",
      "outputs": [
        {
          "name": "",
          "type": "uint256"
        }
      ],
      "payable": false,
      "stateMutability": "nonpayable",
      "type": "function"
    },
    {
      "constant": false,
      "inputs": [
        {
          "name": "_name",
          "type": "string"
        }
      ],
      "name": "getPatientByName",
      "outputs": [
        {
          "name": "",
          "type": "string"
        }
      ],
      "payable": false,
      "stateMutability": "nonpayable",
      "type": "function"
    },
    {
      "constant": false,
      "inputs": [
        {
          "name": "_name",
          "type": "string"
        }
      ],
      "name": "getDoctorIdByName",
      "outputs": [
        {
          "name": "",
          "type": "uint256"
        }
      ],
      "payable": false,
      "stateMutability": "nonpayable",
      "type": "function"
    },
    {
      "constant": true,
      "inputs": [
        {
          "name": "v",
          "type": "uint256"
        }
      ],
      "name": "uintToString",
      "outputs": [
        {
          "name": "str",
          "type": "string"
        }
      ],
      "payable": false,
      "stateMutability": "view",
      "type": "function"
    },
    {
      "constant": false,
      "inputs": [
        {
          "name": "_disease",
          "type": "string"
        },
        {
          "name": "_age",
          "type": "uint256"
        },
        {
          "name": "_country",
          "type": "string"
        }
      ],
      "name": "getDataToBuy",
      "outputs": [
        {
          "name": "",
          "type": "uint256"
        }
      ],
      "payable": false,
      "stateMutability": "nonpayable",
      "type": "function"
    }
  ],
  "bytecode": "0x606060405234156200001057600080fd5b60006003819055506000600481905550620001186040805190810160405280600381526020017f42656e000000000000000000000000000000000000000000000000000000000081525060116040805190810160405280600681526020017f43616e61646100000000000000000000000000000000000000000000000000008152506040805190810160405280600781526020017f546f726f6e746f000000000000000000000000000000000000000000000000008152506040805190810160405280600681526020017f43616e6164610000000000000000000000000000000000000000000000000000815250620002a06401000000000262000cbf176401000000009004565b620002106040805190810160405280600481526020017f4164616d0000000000000000000000000000000000000000000000000000000081525060166040805190810160405280600681526020017f4672616e636500000000000000000000000000000000000000000000000000008152506040805190810160405280600581526020017f50617269730000000000000000000000000000000000000000000000000000008152506040805190810160405280600781526020017f4765726d616e7900000000000000000000000000000000000000000000000000815250620002a06401000000000262000cbf176401000000009004565b6200029a6040805190810160405280600681526020017f5068696c697000000000000000000000000000000000000000000000000000008152506040805190810160405280600a81526020017f486f73706974616c203100000000000000000000000000000000000000000000815250620003e064010000000002620010d0176401000000009004565b62000590565b620002aa62000473565b6003600081548092919060010191905055506101206040519081016040528060035481526020018781526020018681526020018581526020018481526020018381526020016000815260200182815260200160008152506001600060035481526020019081526020016000206000820151816000015560208201518160010190805190602001906200033e9291906200049c565b50604082015181600201556060820151816003019080519060200190620003679291906200049c565b506080820151816004019080519060200190620003869291906200049c565b5060a0820151816005019080519060200190620003a59291906200049c565b5060c0820151816006015560e082015181600701906005620003c992919062000523565b5061010082015181600c0155905050505050505050565b60046000815480929190600101919050555060606040519081016040528060045481526020018381526020018281525060008060045481526020019081526020016000206000820151816000015560208201518160010190805190602001906200044c9291906200049c565b5060408201518160020190805190602001906200046b9291906200049c565b509050505050565b60a0604051908101604052806005905b6000815260200190600190039081620004835790505090565b828054600181600116156101000203166002900490600052602060002090601f016020900481019282601f10620004df57805160ff191683800117855562000510565b8280016001018555821562000510579182015b828111156200050f578251825591602001919060010190620004f2565b5b5090506200051f919062000568565b5090565b826005810192821562000555579160200282015b828111156200055457825182559160200191906001019062000537565b5b50905062000564919062000568565b5090565b6200058d91905b80821115620005895760008160009055506001016200056f565b5090565b90565b61213180620005a06000396000f3006060604052600436106100fc576000357c0100000000000000000000000000000000000000000000000000000000900463ffffffff168063012f4a761461010157806304bb9bc01461012a57806310dcb0f91461015357806346459b221461018957806346498ce6146101c4578063500a9d84146101fa5780635e26f919146102305780636a493554146102665780636efb1b841461029c57806382c5fbc8146102d457806387ad6536146102f6578063890d9fea1461032c57806393119a831461034e578063af45f2641461038b578063b6b1289d146103c1578063dc093978146103ea578063ded855e11461040c578063e939567914610442575b600080fd5b341561010c57600080fd5b610114610478565b6040516101219190611e6a565b60405180910390f35b341561013557600080fd5b61013d61047e565b60405161014a9190611e6a565b60405180910390f35b341561015e57600080fd5b610173600461016e90369061176d565b610484565b6040516101809190611e48565b60405180910390f35b341561019457600080fd5b6101a960046101a4903690611b90565b6107b4565b6040516101bb96959493929190611eca565b60405180910390f35b34156101cf57600080fd5b6101e460046101df903690611902565b6107ed565b6040516101f19190611e2d565b60405180910390f35b341561020557600080fd5b61021a6004610215903690611bc2565b61087a565b6040516102279190611e2d565b60405180910390f35b341561023b57600080fd5b610250600461024b90369061176d565b6109c7565b60405161025d9190611e6a565b60405180910390f35b341561027157600080fd5b6102866004610281903690611b90565b610ae8565b6040516102939190611e12565b60405180910390f35b34156102a757600080fd5b6102bc60046102b7903690611b90565b610b4f565b6040516102cb93929190611e85565b60405180910390f35b34156102df57600080fd5b6102f460046102ef903690611847565b610b77565b005b341561030157600080fd5b6103166004610311903690611b90565b610c5e565b6040516103239190611e12565b60405180910390f35b341561033757600080fd5b61034c6004610347903690611a8c565b610cbf565b005b341561035957600080fd5b61036e6004610369903690611b90565b610df3565b604051610382989796959493929190611f40565b60405180910390f35b341561039657600080fd5b6103ab60046103a69036906119f2565b610e37565b6040516103b89190611e6a565b60405180910390f35b34156103cc57600080fd5b6103d46110ca565b6040516103e19190611e6a565b60405180910390f35b34156103f557600080fd5b61040a60046104059036906117c0565b6110d0565b005b341561041757600080fd5b61042c600461042790369061176d565b61115f565b6040516104399190611e6a565b60405180910390f35b341561044d57600080fd5b610462600461045d903690611b90565b611281565b60405161046f9190611e48565b60405180910390f35b60055481565b60045481565b61048c611546565b6000610496611546565b61049e611546565b600092505b600354831115156107ab57846040518082805190602001908083835b6020831015156104e457805182526020820191506020810190506020830392506104bf565b6001836020036101000a0380198251168184511680821785525050505050509050019150506040518091039020600019166001600085815260200190815260200160002060010160405180828054600181600116156101000203166002900480156105865780601f10610564576101008083540402835291820191610586565b820191906000526020600020905b815481529060010190602001808311610572575b5050915050604051809103902060001916141561079e576105bc6001600085815260200190815260200160002060020154611281565b9150610794610678600160008681526020019081526020016000206005018054600181600116156101000203166002900480601f01602080910402602001604051908101604052809291908181526020018280546001816001161561010002031660029004801561066e5780601f106106435761010080835404028352916020019161066e565b820191906000526020600020905b81548152906001019060200180831161065157829003601f168201915b505050505061144f565b6107866107816106bc6040805190810160405280600781526020017f2020207c2020200000000000000000000000000000000000000000000000000081525061144f565b610773600160008a81526020019081526020016000206001018054600181600116156101000203166002900480601f0160208091040260200160405190810160405280929190818152602001828054600181600116156101000203166002900480156107695780601f1061073e57610100808354040283529160200191610769565b820191906000526020600020905b81548152906001019060200180831161074c57829003601f168201915b505050505061144f565b61147d90919063ffffffff16565b61144f565b61147d90919063ffffffff16565b90508093506107ac565b82806001019350506104a3565b5b505050919050565b60026020528060005260406000206000915090508060000154908060010190806002019080600301908060040154908060050154905086565b6000806107fb858585610b77565b6108048661115f565b905060016000828152602001908152602001600020600c01600081548092919060010191905055506005546001600083815260200190815260200160002060070160016000848152602001908152602001600020600c015460058110151561086857fe5b01819055506001915050949350505050565b600061088461155a565b600061088f8a610ae8565b9150600160008b8152602001908152602001600020600c01549050610120604051908101604052808b81526020018a815260200189815260200188815260200187815260200186815260200185815260200183815260200182815250600160008c8152602001908152602001600020600082015181600001556020820151816001019080519060200190610924929190611582565b5060408201518160020155606082015181600301908051906020019061094b929190611582565b506080820151816004019080519060200190610968929190611582565b5060a0820151816005019080519060200190610985929190611582565b5060c0820151816006015560e0820151816007019060056109a7929190611602565b5061010082015181600c0155905050600192505050979650505050505050565b600080600090505b60045481111515610add57826040518082805190602001908083835b602083101515610a1057805182526020820191506020810190506020830392506109eb565b6001836020036101000a0380198251168184511680821785525050505050509050019150506040518091039020600019166000808381526020019081526020016000206001016040518082805460018160011615610100020316600290048015610ab15780601f10610a8f576101008083540402835291820191610ab1565b820191906000526020600020905b815481529060010190602001808311610a9d575b50509150506040518091039020600019161415610ad057809150610ae2565b80806001019150506109cf565b600091505b50919050565b610af061155a565b600060016000848152602001908152602001600020600701905080600580602002604051908101604052809291908260058015610b42576020028201915b815481526020019060010190808311610b2e575b5050505050915050919050565b6000602052806000526040600020600091509050806000015490806001019080600201905083565b610b7f611642565b60056000815480929190600101919050555060c06040519081016040528060055481526020018581526020018481526020018381526020014281526020016637112afa04c000815250905080600260006005548152602001908152602001600020600082015181600001556020820151816001019080519060200190610c06929190611582565b506040820151816002019080519060200190610c23929190611582565b506060820151816003019080519060200190610c40929190611582565b506080820151816004015560a0820151816005015590505050505050565b610c6661155a565b60016000838152602001908152602001600020600701600580602002604051908101604052809291908260058015610cb3576020028201915b815481526020019060010190808311610c9f575b50505050509050919050565b610cc761155a565b600360008154809291906001019190505550610120604051908101604052806003548152602001878152602001868152602001858152602001848152602001838152602001600081526020018281526020016000815250600160006003548152602001908152602001600020600082015181600001556020820151816001019080519060200190610d59929190611582565b50604082015181600201556060820151816003019080519060200190610d80929190611582565b506080820151816004019080519060200190610d9d929190611582565b5060a0820151816005019080519060200190610dba929190611582565b5060c0820151816006015560e082015181600701906005610ddc929190611602565b5061010082015181600c0155905050505050505050565b6001602052806000526040600020600091509050806000015490806001019080600201549080600301908060040190806005019080600601549080600c0154905088565b60008060008060008092505b600354831115156110bc57866001600085815260200190815260200160002060020154148015610f595750856040518082805190602001908083835b602083101515610ea45780518252602082019150602081019050602083039250610e7f565b6001836020036101000a038019825116818451168082178552505050505050905001915050604051809103902060001916600160008581526020019081526020016000206005016040518082805460018160011615610100020316600290048015610f465780601f10610f24576101008083540402835291820191610f46565b820191906000526020600020905b815481529060010190602001808311610f32575b5050915050604051809103902060001916145b156110af57600091505b60016000848152602001908152602001600020600c0154821115156110ae576001600084815260200190815260200160002060070182600581101515610fa557fe5b01549050876040518082805190602001908083835b602083101515610fdf5780518252602082019150602081019050602083039250610fba565b6001836020036101000a0380198251168184511680821785525050505050509050019150506040518091039020600019166002600083815260200190815260200160002060010160405180828054600181600116156101000203166002900480156110815780601f1061105f576101008083540402835291820191611081565b820191906000526020600020905b81548152906001019060200180831161106d575b505091505060405180910390206000191614156110a15783806001019450505b8180600101925050610f63565b5b8280600101935050610e43565b839450505050509392505050565b60035481565b600460008154809291906001019190505550606060405190810160405280600454815260200183815260200182815250600080600454815260200190815260200160002060008201518160000155602082015181600101908051906020019061113a929190611582565b506040820151816002019080519060200190611157929190611582565b509050505050565b600080600190505b6003548111151561127657826040518082805190602001908083835b6020831015156111a85780518252602082019150602081019050602083039250611183565b6001836020036101000a03801982511681845116808217855250505050505090500191505060405180910390206000191660016000838152602001908152602001600020600101604051808280546001816001161561010002031660029004801561124a5780601f1061122857610100808354040283529182019161124a565b820191906000526020600020905b815481529060010190602001808311611236575b505091505060405180910390206000191614156112695780915061127b565b8080600101915050611167565b600091505b50919050565b611289611546565b600061129361168b565b60008061129e61168b565b600060649550856040518059106112b25750595b9080825280601f01601f19166020018201604052509450600093505b60008814151561136557600a888115156112e457fe5b069250600a888115156112f357fe5b049750826030017f010000000000000000000000000000000000000000000000000000000000000002858580600101965081518110151561133057fe5b9060200101907effffffffffffffffffffffffffffffffffffffffffffffffffffffffffffff1916908160001a9053506112ce565b600184016040518059106113765750595b9080825280601f01601f19166020018201604052509150600090505b838111151561144157848185038151811015156113ab57fe5b9060200101517f010000000000000000000000000000000000000000000000000000000000000090047f010000000000000000000000000000000000000000000000000000000000000002828281518110151561140457fe5b9060200101907effffffffffffffffffffffffffffffffffffffffffffffffffffffffffffff1916908160001a9053508080600101915050611392565b819650505050505050919050565b61145761169f565b600060208301905060408051908101604052808451815260200182815250915050919050565b611485611546565b61148d611546565b600083600001518560000151016040518059106114a75750595b9080825280601f01601f191660200182016040525091506020820190506114d781866020015187600001516114fb565b6114f085600001518201856020015186600001516114fb565b819250505092915050565b60005b60208210151561152357825184526020840193506020830192506020820391506114fe565b6001826020036101000a0390508019835116818551168181178652505050505050565b602060405190810160405280600081525090565b60a0604051908101604052806005905b600081526020019060019003908161156a5790505090565b828054600181600116156101000203166002900490600052602060002090601f016020900481019282601f106115c357805160ff19168380011785556115f1565b828001600101855582156115f1579182015b828111156115f05782518255916020019190600101906115d5565b5b5090506115fe91906116b9565b5090565b8260058101928215611631579160200282015b82811115611630578251825591602001919060010190611615565b5b50905061163e91906116b9565b5090565b60c0604051908101604052806000815260200161165d6116de565b815260200161166a6116de565b81526020016116776116de565b815260200160008152602001600081525090565b602060405190810160405280600081525090565b604080519081016040528060008152602001600081525090565b6116db91905b808211156116d75760008160009055506001016116bf565b5090565b90565b602060405190810160405280600081525090565b600082601f830112600081146117075761170c565b600080fd5b50813561172061171b82612010565b611fda565b9150808252602083016020830185838301116001811461173f57611744565b600080fd5b506117508382846120a4565b50505092915050565b6000611765823561209a565b905092915050565b60006020828403126001811461178257611787565b600080fd5b50600082013567ffffffffffffffff8111600181146117a5576117aa565b600080fd5b506117b7848285016116f2565b91505092915050565b600080604083850312600181146117d6576117db565b600080fd5b50600083013567ffffffffffffffff8111600181146117f9576117fe565b600080fd5b5061180b858286016116f2565b925050602083013567ffffffffffffffff81116001811461182b57611830565b600080fd5b5061183d858286016116f2565b9150509250929050565b60008060006060848603126001811461185f57611864565b600080fd5b50600084013567ffffffffffffffff81116001811461188257611887565b600080fd5b50611894868287016116f2565b935050602084013567ffffffffffffffff8111600181146118b4576118b9565b600080fd5b506118c6868287016116f2565b925050604084013567ffffffffffffffff8111600181146118e6576118eb565b600080fd5b506118f8868287016116f2565b9150509250925092565b6000806000806080858703126001811461191b57611920565b600080fd5b50600085013567ffffffffffffffff81116001811461193e57611943565b600080fd5b50611950878288016116f2565b945050602085013567ffffffffffffffff81116001811461197057611975565b600080fd5b50611982878288016116f2565b935050604085013567ffffffffffffffff8111600181146119a2576119a7565b600080fd5b506119b4878288016116f2565b925050606085013567ffffffffffffffff8111600181146119d4576119d9565b600080fd5b506119e6878288016116f2565b91505092959194509250565b600080600060608486031260018114611a0a57611a0f565b600080fd5b50600084013567ffffffffffffffff811160018114611a2d57611a32565b600080fd5b50611a3f868287016116f2565b9350506020611a5086828701611759565b925050604084013567ffffffffffffffff811160018114611a7057611a75565b600080fd5b50611a82868287016116f2565b9150509250925092565b600080600080600060a08688031260018114611aa757611aac565b600080fd5b50600086013567ffffffffffffffff811160018114611aca57611acf565b600080fd5b50611adc888289016116f2565b9550506020611aed88828901611759565b945050604086013567ffffffffffffffff811160018114611b0d57611b12565b600080fd5b50611b1f888289016116f2565b935050606086013567ffffffffffffffff811160018114611b3f57611b44565b600080fd5b50611b51888289016116f2565b925050608086013567ffffffffffffffff811160018114611b7157611b76565b600080fd5b50611b83888289016116f2565b9150509295509295909350565b600060208284031260018114611ba557611baa565b600080fd5b506000611bb984828501611759565b91505092915050565b600080600080600080600060e0888a031260018114611be057611be5565b600080fd5b506000611bf48a828b01611759565b975050602088013567ffffffffffffffff811160018114611c1457611c19565b600080fd5b50611c268a828b016116f2565b9650506040611c378a828b01611759565b955050606088013567ffffffffffffffff811160018114611c5757611c5c565b600080fd5b50611c698a828b016116f2565b945050608088013567ffffffffffffffff811160018114611c8957611c8e565b600080fd5b50611c9b8a828b016116f2565b93505060a088013567ffffffffffffffff811160018114611cbb57611cc0565b600080fd5b50611ccd8a828b016116f2565b92505060c0611cde8a828b01611759565b91505092959891949750929550565b611cf681612061565b611cff82612045565b60005b82811015611d3157611d15858351611e03565b611d1e82612077565b9150602085019450600181019050611d02565b5050505050565b611d4181612084565b82525050565b6000611d528261206c565b808452611d668160208601602086016120b3565b611d6f816120e6565b602085010191505092915050565b600081546001811660008114611d9a5760018114611dba57611dfb565b607f600283041680865260ff198316602087015260408601935050611dfb565b60028204808652602086019550611dd08561204f565b60005b82811015611df257815481890152600182019150602081019050611dd3565b80880195505050505b505092915050565b611e0c81612090565b82525050565b600060a082019050611e276000830184611ced565b92915050565b6000602082019050611e426000830184611d38565b92915050565b60006020820190508181036000830152611e628184611d47565b905092915050565b6000602082019050611e7f6000830184611e03565b92915050565b6000606082019050611e9a6000830186611e03565b8181036020830152611eac8185611d7d565b90508181036040830152611ec08184611d7d565b9050949350505050565b600060c082019050611edf6000830189611e03565b8181036020830152611ef18188611d7d565b90508181036040830152611f058187611d7d565b90508181036060830152611f198186611d7d565b9050611f286080830185611e03565b611f3560a0830184611e03565b979650505050505050565b600061010082019050611f56600083018b611e03565b8181036020830152611f68818a611d7d565b9050611f776040830189611e03565b8181036060830152611f898188611d7d565b90508181036080830152611f9d8187611d7d565b905081810360a0830152611fb18186611d7d565b9050611fc060c0830185611e03565b611fcd60e0830184611e03565b9998505050505050505050565b6000604051905081810181811067ffffffffffffffff8211176001811461200057612005565b600080fd5b508060405250919050565b600067ffffffffffffffff82116001811461202a5761202f565b600080fd5b50601f19601f8301169050602081019050919050565b6000819050919050565b60008160005260206000209050919050565b600060059050919050565b600081519050919050565b6000602082019050919050565b60008115159050919050565b6000819050919050565b6000819050919050565b82818337600083830152505050565b60005b838110156120d15780820151818401526020810190506120b6565b838111156120e0576000848401525b50505050565b6000601f19601f83011690509190505600a265627a7a7230582030e320687f1f1de7fbaec89e5386d0d886a1c93656097b13715e3c0c50ba6cc36c6578706572696d656e74616cf50037",
  "source": "import \"./strings.sol\";\n\npragma solidity ^0.4.2;\npragma experimental ABIEncoderV2;\n\ncontract Health {\n    using strings for *;\n    \n    struct Patient {\n        uint id;\n        string name;\n        uint age;\n        string nationality;\n        string city;\n        string country;\n        uint balance;\n        uint[5] diseases;\n        uint patientDiseasesCount;\n        // mapping(string => Disease) diseases;\n    }\n\n    struct Disease {\n        uint id;\n        string name;\n        string symptoms;\n        string doctor;\n        uint date;\n        uint price;\n    }\n\n    struct Doctor {\n        uint id;\n        string name;\n        string hospital;\n    }\n    \n    mapping (uint => Doctor) public doctors;\n    mapping (uint => Patient) public patients;\n    mapping (uint => Disease) public diseases;\n    uint public patientsCount;\n    uint public doctorsCount;\n    uint public diseasesCount;\n\n    // Constructor\n    function Health() public {\n        patientsCount = 0;\n        doctorsCount = 0;\n\n        addPatient(\"Ben\", 17, \"Canada\", \"Toronto\", \"Canada\");\n        addPatient(\"Adam\", 22, \"France\", \"Paris\", \"Germany\");\n        addDoctor(\"Philip\", \"Hospital 1\");\n    }\n    // addPateint\n    // test data: \"Amine\", 20, \"Morocco\", \"Karlsruhe\", \"Germany\"\n    function addPatient(string _name, uint _age, string _nationality, string _city, string _country) public {\n        patientsCount++;\n        uint[5] memory _diseases;\n        patients[patientsCount] = Patient(patientsCount, _name, _age,\n                                          _nationality, _city, _country, 0, _diseases, 0);\n    }\n\n    // test data: \"Cancer\", \"symptom 1\", \"Dr. Philip\"\n    function addDisease(string _name, string _symptoms, string _doctor) {\n        diseasesCount++;\n        Disease memory d = Disease(diseasesCount, _name, _symptoms, _doctor, now, 15500000000000000);\n        diseases[diseasesCount] = d;\n    }\n\n    // addDisease\n    // TODO: Please solidity implement string arrays!! Now, I need to do a dirty hack on the client now\n    // test data: \"Ben\", \"Cancer\", \"symptom 1\", \"Philip\"\n    function addDiseaseToPatient(string _patientName, string _name, string _symptoms, string _doctor) public returns(bool) {\n        addDisease(_name, _symptoms, _doctor);\n        uint _patientId = getPatientIdByName(_patientName);\n        patients[_patientId].patientDiseasesCount++;\n        patients[_patientId].diseases[patients[_patientId].patientDiseasesCount] = diseasesCount;\n        return true;\n    }\n\n    // function editDisease(string _patientName, string _diseaseName, string _syptom) {\n    //     uint _patientId = getPatientIdByName(_patientName);\n    //     for (uint l = 0; l <= patients[_patientId].patientDiseasesCount; l++) {\n    //         if (keccak256(diseases[patients[_patientId].diseases[l]].name) == keccak256(_patientName)) {\n    //             diseases[patients[_patientId].diseases[l]].syptoms.push(_syptom);\n    //         }\n    //     }\n    //     patients[_patientId].\n    // }\n    \n    function getPatientDiseases(uint _id) public returns(uint[5]) {\n        return patients[_id].diseases;\n    }\n    \n    //addDoctor\n    // test data: \"Philip\", \"hospital 100\"\n    function addDoctor(string _name, string _hospital) {\n        doctorsCount++;\n        doctors[doctorsCount] = Doctor(doctorsCount, _name, _hospital);\n    }\n\n    // editPatient\n    // test data: 1, \"Ben\", 27, \"UK\", \"London\", \"UK\", 10\n    function editPatient(uint _id, string _name, uint _age, string _nationality, string _city, string _country, uint _balance) public returns(bool) {\n        uint[5] memory _diseases = getPatientDiseasesIds(_id);\n        uint _pCount = patients[_id].patientDiseasesCount;\n        patients[_id] = Patient(_id, _name, _age, _nationality, _city, _country, _balance, _diseases, _pCount);\n        return true;\n    }\n\n    // test data: 1\n    function getPatientDiseasesIds(uint _id) returns(uint[5]) {\n        uint[5] _diseasesArray = patients[_id].diseases;\n        return _diseasesArray;\n    }\n\n    // test data: \"Ben\"\n    function getPatientIdByName(string _name) public returns(uint) {\n        for (uint i = 1; i <= patientsCount; i++) {\n            if (keccak256(patients[i].name) == keccak256(_name)) {\n                return i;\n            }\n        }\n        return 0;\n    }\n\n    // lookupPatient\n    function getPatientByName(string _name) public returns(string) {\n        for (uint x = 0; x <= patientsCount; x++) {\n            if (keccak256(patients[x].name) == keccak256(_name)) {\n                string memory _age = uintToString(patients[x].age);\n                string memory s = patients[x].name.toSlice()\n                                  .concat(\"   |   \".toSlice()).toSlice()\n                                  .concat(patients[x].country.toSlice());\n                //s = s.toSlice().concat(_age.toSlice());\n                //s = s.toSlice().concat(\"-\".toSlice());\n                //s = s.toSlice().concat(_age.toSlice());\n                //s = s.toSlice().concat(\"*\".toSlice());\n                return s;\n            }\n        }\n    }\n\n    // test data: \"Philip\"\n    function getDoctorIdByName(string _name) public returns(uint) {\n        for (uint j = 0; j <= doctorsCount; j++) {\n            if (keccak256(doctors[j].name) == keccak256(_name)) {\n                return j;\n            }\n        }\n        return 0;\n    }\n    \n    function uintToString(uint v) public constant returns (string str) {\n        uint maxlength = 100;\n        bytes memory reversed = new bytes(maxlength);\n        uint i = 0;\n        while (v != 0) {\n            uint remainder = v % 10;\n            v = v / 10;\n            reversed[i++] = byte(48 + remainder);\n        }\n        bytes memory s = new bytes(i + 1);\n        for (uint j = 0; j <= i; j++) {\n            s[j] = reversed[i - j];\n        }\n        str = string(s);\n    }\n\n    // getdataToBuy\n    function getDataToBuy(string _disease, uint _age, string _country) public returns(uint) {\n        uint numberOfSelectedPatients;\n\n        for ( uint k = 0; k <= patientsCount; k++) {\n            if (patients[k].age == _age && keccak256(patients[k].country) == keccak256(_country)) {\n                    for (uint z = 0; z <= patients[k].patientDiseasesCount; z++) {\n                        uint tmp = patients[k].diseases[z];\n                        if (keccak256(diseases[tmp].name) == keccak256(_disease)) {\n                            numberOfSelectedPatients++;\n                        }\n                    }\n            }\n        }\n        return numberOfSelectedPatients;\n    }\n\n/*\n    function buyData() payable {\n        this.address.transfer(10);\n    }\n   */ \n}",
  "sourcePath": "/Users/amineafia/Documents/dapps/hexchain/contracts/Health.sol",
  "compiler": {
    "name": "solc",
    "version": "0.4.19+commit.c4cbbb05.Emscripten.clang"
  },
  "schemaVersion": "2.0.0",
  "updatedAt": "2018-03-18T00:36:37.340Z"
}