{
  "contractName": "Health",
  "abi": [
    {
      "constant": true,
      "inputs": [],
      "name": "diseasesCount",
      "outputs": [
        {
          "name": "",
          "type": "uint256"
        }
      ],
      "payable": false,
      "stateMutability": "view",
      "type": "function"
    },
    {
      "constant": true,
      "inputs": [],
      "name": "doctorsCount",
      "outputs": [
        {
          "name": "",
          "type": "uint256"
        }
      ],
      "payable": false,
      "stateMutability": "view",
      "type": "function"
    },
    {
      "constant": true,
      "inputs": [
        {
          "name": "",
          "type": "uint256"
        }
      ],
      "name": "diseases",
      "outputs": [
        {
          "name": "id",
          "type": "uint256"
        },
        {
          "name": "name",
          "type": "string"
        },
        {
          "name": "symptoms",
          "type": "string"
        },
        {
          "name": "doctor",
          "type": "string"
        },
        {
          "name": "date",
          "type": "uint256"
        },
        {
          "name": "price",
          "type": "uint256"
        }
      ],
      "payable": false,
      "stateMutability": "view",
      "type": "function"
    },
    {
      "constant": true,
      "inputs": [
        {
          "name": "",
          "type": "uint256"
        }
      ],
      "name": "doctors",
      "outputs": [
        {
          "name": "id",
          "type": "uint256"
        },
        {
          "name": "name",
          "type": "string"
        },
        {
          "name": "hospital",
          "type": "string"
        }
      ],
      "payable": false,
      "stateMutability": "view",
      "type": "function"
    },
    {
      "constant": true,
      "inputs": [
        {
          "name": "",
          "type": "uint256"
        }
      ],
      "name": "patients",
      "outputs": [
        {
          "name": "id",
          "type": "uint256"
        },
        {
          "name": "name",
          "type": "string"
        },
        {
          "name": "age",
          "type": "uint256"
        },
        {
          "name": "nationality",
          "type": "string"
        },
        {
          "name": "city",
          "type": "string"
        },
        {
          "name": "country",
          "type": "string"
        },
        {
          "name": "balance",
          "type": "uint256"
        }
      ],
      "payable": false,
      "stateMutability": "view",
      "type": "function"
    },
    {
      "constant": true,
      "inputs": [],
      "name": "patientsCount",
      "outputs": [
        {
          "name": "",
          "type": "uint256"
        }
      ],
      "payable": false,
      "stateMutability": "view",
      "type": "function"
    },
    {
      "inputs": [],
      "payable": false,
      "stateMutability": "nonpayable",
      "type": "constructor"
    },
    {
      "constant": false,
      "inputs": [
        {
          "name": "_name",
          "type": "string"
        },
        {
          "name": "_age",
          "type": "uint256"
        },
        {
          "name": "_nationality",
          "type": "string"
        },
        {
          "name": "_city",
          "type": "string"
        },
        {
          "name": "_country",
          "type": "string"
        }
      ],
      "name": "addPatient",
      "outputs": [],
      "payable": false,
      "stateMutability": "nonpayable",
      "type": "function"
    },
    {
      "constant": false,
      "inputs": [
        {
          "name": "_patientName",
          "type": "string"
        },
        {
          "name": "_name",
          "type": "string"
        },
        {
          "name": "_symptoms",
          "type": "string"
        },
        {
          "name": "_doctor",
          "type": "string"
        }
      ],
      "name": "addDiseaseToPatient",
      "outputs": [],
      "payable": false,
      "stateMutability": "nonpayable",
      "type": "function"
    },
    {
      "constant": false,
      "inputs": [
        {
          "name": "_name",
          "type": "string"
        },
        {
          "name": "_hospital",
          "type": "string"
        }
      ],
      "name": "addDoctor",
      "outputs": [],
      "payable": false,
      "stateMutability": "nonpayable",
      "type": "function"
    },
    {
      "constant": false,
      "inputs": [
        {
          "name": "_id",
          "type": "uint256"
        },
        {
          "name": "_name",
          "type": "string"
        },
        {
          "name": "_age",
          "type": "uint256"
        },
        {
          "name": "_nationality",
          "type": "string"
        },
        {
          "name": "_city",
          "type": "string"
        },
        {
          "name": "_country",
          "type": "string"
        },
        {
          "name": "_balance",
          "type": "uint256"
        }
      ],
      "name": "editPatient",
      "outputs": [
        {
          "name": "",
          "type": "bool"
        }
      ],
      "payable": false,
      "stateMutability": "nonpayable",
      "type": "function"
    },
    {
      "constant": false,
      "inputs": [
        {
          "name": "_id",
          "type": "uint256"
        }
      ],
      "name": "getPatientDiseasesIds",
      "outputs": [
        {
          "name": "",
          "type": "uint256[]"
        }
      ],
      "payable": false,
      "stateMutability": "nonpayable",
      "type": "function"
    },
    {
      "constant": false,
      "inputs": [
        {
          "name": "_name",
          "type": "string"
        }
      ],
      "name": "getPatientIdByName",
      "outputs": [
        {
          "name": "",
          "type": "uint256"
        }
      ],
      "payable": false,
      "stateMutability": "nonpayable",
      "type": "function"
    },
    {
      "constant": false,
      "inputs": [
        {
          "name": "_name",
          "type": "string"
        }
      ],
      "name": "getDoctorIdByName",
      "outputs": [
        {
          "name": "",
          "type": "uint256"
        }
      ],
      "payable": false,
      "stateMutability": "nonpayable",
      "type": "function"
    }
  ],
  "bytecode": "0x606060405234156200001057600080fd5b60006003819055506000600481905550620001186040805190810160405280600381526020017f42656e000000000000000000000000000000000000000000000000000000000081525060116040805190810160405280600681526020017f43616e61646100000000000000000000000000000000000000000000000000008152506040805190810160405280600781526020017f546f726f6e746f000000000000000000000000000000000000000000000000008152506040805190810160405280600681526020017f43616e6164610000000000000000000000000000000000000000000000000000815250620002a06401000000000262000794176401000000009004565b620002106040805190810160405280600481526020017f4164616d0000000000000000000000000000000000000000000000000000000081525060166040805190810160405280600681526020017f4672616e636500000000000000000000000000000000000000000000000000008152506040805190810160405280600581526020017f50617269730000000000000000000000000000000000000000000000000000008152506040805190810160405280600781526020017f4765726d616e7900000000000000000000000000000000000000000000000000815250620002a06401000000000262000794176401000000009004565b6200029a6040805190810160405280600681526020017f5068696c697000000000000000000000000000000000000000000000000000008152506040805190810160405280600a81526020017f486f73706974616c203100000000000000000000000000000000000000000000815250620003d364010000000002620008ff176401000000009004565b6200057b565b620002aa62000466565b6003600081548092919060010191905055506101006040519081016040528060035481526020018781526020018681526020018581526020018481526020018381526020016000815260200182815250600160006003548152602001908152602001600020600082015181600001556020820151816001019080519060200190620003379291906200047a565b50604082015181600201556060820151816003019080519060200190620003609291906200047a565b5060808201518160040190805190602001906200037f9291906200047a565b5060a08201518160050190805190602001906200039e9291906200047a565b5060c0820151816006015560e0820151816007019080519060200190620003c792919062000501565b50905050505050505050565b60046000815480929190600101919050555060606040519081016040528060045481526020018381526020018281525060008060045481526020019081526020016000206000820151816000015560208201518160010190805190602001906200043f9291906200047a565b5060408201518160020190805190602001906200045e9291906200047a565b509050505050565b602060405190810160405280600081525090565b828054600181600116156101000203166002900490600052602060002090601f016020900481019282601f10620004bd57805160ff1916838001178555620004ee565b82800160010185558215620004ee579182015b82811115620004ed578251825591602001919060010190620004d0565b5b509050620004fd919062000553565b5090565b82805482825590600052602060002090810192821562000540579160200282015b828111156200053f57825182559160200191906001019062000522565b5b5090506200054f919062000553565b5090565b6200057891905b80821115620005745760008160009055506001016200055a565b5090565b90565b61148d806200058b6000396000f3006060604052600436106100c5576000357c0100000000000000000000000000000000000000000000000000000000900463ffffffff168063012f4a76146100ca57806304bb9bc0146100f357806346459b221461011c57806346498ce614610157578063500a9d84146101795780635e26f919146101af5780636a493554146101e55780636efb1b841461021b578063890d9fea1461025357806393119a8314610275578063b6b1289d146102b1578063dc093978146102da578063ded855e1146102fc575b600080fd5b34156100d557600080fd5b6100dd610332565b6040516100ea9190611221565b60405180910390f35b34156100fe57600080fd5b610106610338565b6040516101139190611221565b60405180910390f35b341561012757600080fd5b61013c6004610137903690610f88565b61033e565b60405161014e96959493929190611281565b60405180910390f35b341561016257600080fd5b6101776004610172903690610d94565b610377565b005b341561018457600080fd5b6101996004610194903690610fba565b6104ac565b6040516101a69190611206565b60405180910390f35b34156101ba57600080fd5b6101cf60046101ca903690610cba565b6105d1565b6040516101dc9190611221565b60405180910390f35b34156101f057600080fd5b6102056004610200903690610f88565b6106f2565b60405161021291906111e4565b60405180910390f35b341561022657600080fd5b61023b6004610236903690610f88565b61076c565b60405161024a9392919061123c565b60405180910390f35b341561025e57600080fd5b610273600461026e903690610e84565b610794565b005b341561028057600080fd5b6102956004610290903690610f88565b6108bb565b6040516102a897969594939291906112f7565b60405180910390f35b34156102bc57600080fd5b6102c46108f9565b6040516102d19190611221565b60405180910390f35b34156102e557600080fd5b6102fa60046102f5903690610d0d565b6108ff565b005b341561030757600080fd5b61031c6004610317903690610cba565b61098e565b6040516103299190611221565b60405180910390f35b60055481565b60045481565b60026020528060005260406000206000915090508060000154908060010190806002019080600301908060040154908060050154905086565b6000610381610ab0565b61038a8661098e565b915060056000815480929190600101919050555060c06040519081016040528060055481526020018681526020018581526020018481526020014281526020016637112afa04c000815250905080600260006005548152602001908152602001600020600082015181600001556020820151816001019080519060200190610413929190610af9565b506040820151816002019080519060200190610430929190610af9565b50606082015181600301908051906020019061044d929190610af9565b506080820151816004015560a0820151816005015590505060016000838152602001908152602001600020600701805480600101828161048d9190610b79565b9160005260206000209001600060055490919091505550505050505050565b60006104b6610ba5565b6104bf896106f2565b9050610100604051908101604052808a815260200189815260200188815260200187815260200186815260200185815260200184815260200182815250600160008b8152602001908152602001600020600082015181600001556020820151816001019080519060200190610535929190610af9565b5060408201518160020155606082015181600301908051906020019061055c929190610af9565b506080820151816004019080519060200190610579929190610af9565b5060a0820151816005019080519060200190610596929190610af9565b5060c0820151816006015560e08201518160070190805190602001906105bd929190610bb9565b509050506001915050979650505050505050565b600080600090505b600454811115156106e757826040518082805190602001908083835b60208310151561061a57805182526020820191506020810190506020830392506105f5565b6001836020036101000a03801982511681845116808217855250505050505090500191505060405180910390206000191660008083815260200190815260200160002060010160405180828054600181600116156101000203166002900480156106bb5780601f106106995761010080835404028352918201916106bb565b820191906000526020600020905b8154815290600101906020018083116106a7575b505091505060405180910390206000191614156106da578091506106ec565b80806001019150506105d9565b600091505b50919050565b6106fa610ba5565b60006001600084815260200190815260200160002060070190508080548060200260200160405190810160405280929190818152602001828054801561075f57602002820191906000526020600020905b81548152602001906001019080831161074b575b5050505050915050919050565b6000602052806000526040600020600091509050806000015490806001019080600201905083565b61079c610ba5565b6003600081548092919060010191905055506101006040519081016040528060035481526020018781526020018681526020018581526020018481526020018381526020016000815260200182815250600160006003548152602001908152602001600020600082015181600001556020820151816001019080519060200190610827929190610af9565b5060408201518160020155606082015181600301908051906020019061084e929190610af9565b50608082015181600401908051906020019061086b929190610af9565b5060a0820151816005019080519060200190610888929190610af9565b5060c0820151816006015560e08201518160070190805190602001906108af929190610bb9565b50905050505050505050565b600160205280600052604060002060009150905080600001549080600101908060020154908060030190806004019080600501908060060154905087565b60035481565b6004600081548092919060010191905055506060604051908101604052806004548152602001838152602001828152506000806004548152602001908152602001600020600082015181600001556020820151816001019080519060200190610969929190610af9565b506040820151816002019080519060200190610986929190610af9565b509050505050565b600080600190505b60035481111515610aa557826040518082805190602001908083835b6020831015156109d757805182526020820191506020810190506020830392506109b2565b6001836020036101000a038019825116818451168082178552505050505050905001915050604051809103902060001916600160008381526020019081526020016000206001016040518082805460018160011615610100020316600290048015610a795780601f10610a57576101008083540402835291820191610a79565b820191906000526020600020905b815481529060010190602001808311610a65575b50509150506040518091039020600019161415610a9857809150610aaa565b8080600101915050610996565b600091505b50919050565b60c06040519081016040528060008152602001610acb610c06565b8152602001610ad8610c06565b8152602001610ae5610c06565b815260200160008152602001600081525090565b828054600181600116156101000203166002900490600052602060002090601f016020900481019282601f10610b3a57805160ff1916838001178555610b68565b82800160010185558215610b68579182015b82811115610b67578251825591602001919060010190610b4c565b5b509050610b759190610c1a565b5090565b815481835581811511610ba057818360005260206000209182019101610b9f9190610c1a565b5b505050565b602060405190810160405280600081525090565b828054828255906000526020600020908101928215610bf5579160200282015b82811115610bf4578251825591602001919060010190610bd9565b5b509050610c029190610c1a565b5090565b602060405190810160405280600081525090565b610c3c91905b80821115610c38576000816000905550600101610c20565b5090565b90565b600082601f83011260008114610c5457610c59565b600080fd5b508135610c6d610c68826113b8565b611382565b91508082526020830160208301858383011160018114610c8c57610c91565b600080fd5b50610c9d838284611444565b50505092915050565b6000610cb2823561143a565b905092915050565b600060208284031260018114610ccf57610cd4565b600080fd5b50600082013567ffffffffffffffff811160018114610cf257610cf7565b600080fd5b50610d0484828501610c3f565b91505092915050565b60008060408385031260018114610d2357610d28565b600080fd5b50600083013567ffffffffffffffff811160018114610d4657610d4b565b600080fd5b50610d5885828601610c3f565b925050602083013567ffffffffffffffff811160018114610d7857610d7d565b600080fd5b50610d8a85828601610c3f565b9150509250929050565b60008060008060808587031260018114610dad57610db2565b600080fd5b50600085013567ffffffffffffffff811160018114610dd057610dd5565b600080fd5b50610de287828801610c3f565b945050602085013567ffffffffffffffff811160018114610e0257610e07565b600080fd5b50610e1487828801610c3f565b935050604085013567ffffffffffffffff811160018114610e3457610e39565b600080fd5b50610e4687828801610c3f565b925050606085013567ffffffffffffffff811160018114610e6657610e6b565b600080fd5b50610e7887828801610c3f565b91505092959194509250565b600080600080600060a08688031260018114610e9f57610ea4565b600080fd5b50600086013567ffffffffffffffff811160018114610ec257610ec7565b600080fd5b50610ed488828901610c3f565b9550506020610ee588828901610ca6565b945050604086013567ffffffffffffffff811160018114610f0557610f0a565b600080fd5b50610f1788828901610c3f565b935050606086013567ffffffffffffffff811160018114610f3757610f3c565b600080fd5b50610f4988828901610c3f565b925050608086013567ffffffffffffffff811160018114610f6957610f6e565b600080fd5b50610f7b88828901610c3f565b9150509295509295909350565b600060208284031260018114610f9d57610fa2565b600080fd5b506000610fb184828501610ca6565b91505092915050565b600080600080600080600060e0888a031260018114610fd857610fdd565b600080fd5b506000610fec8a828b01610ca6565b975050602088013567ffffffffffffffff81116001811461100c57611011565b600080fd5b5061101e8a828b01610c3f565b965050604061102f8a828b01610ca6565b955050606088013567ffffffffffffffff81116001811461104f57611054565b600080fd5b506110618a828b01610c3f565b945050608088013567ffffffffffffffff81116001811461108157611086565b600080fd5b506110938a828b01610c3f565b93505060a088013567ffffffffffffffff8111600181146110b3576110b8565b600080fd5b506110c58a828b01610c3f565b92505060c06110d68a828b01610ca6565b91505092959891949750929550565b60006110f08261140c565b808452602084019350611102836113ed565b60005b82811015611134576111188683516111d5565b61112182611417565b9150602086019550600181019050611105565b50849250505092915050565b61114981611424565b82525050565b60008154600181166000811461116c576001811461118c576111cd565b607f600283041680865260ff1983166020870152604086019350506111cd565b600282048086526020860195506111a2856113fa565b60005b828110156111c4578154818901526001820191506020810190506111a5565b80880195505050505b505092915050565b6111de81611430565b82525050565b600060208201905081810360008301526111fe81846110e5565b905092915050565b600060208201905061121b6000830184611140565b92915050565b600060208201905061123660008301846111d5565b92915050565b600060608201905061125160008301866111d5565b8181036020830152611263818561114f565b90508181036040830152611277818461114f565b9050949350505050565b600060c08201905061129660008301896111d5565b81810360208301526112a8818861114f565b905081810360408301526112bc818761114f565b905081810360608301526112d0818661114f565b90506112df60808301856111d5565b6112ec60a08301846111d5565b979650505050505050565b600060e08201905061130c600083018a6111d5565b818103602083015261131e818961114f565b905061132d60408301886111d5565b818103606083015261133f818761114f565b90508181036080830152611353818661114f565b905081810360a0830152611367818561114f565b905061137660c08301846111d5565b98975050505050505050565b6000604051905081810181811067ffffffffffffffff821117600181146113a8576113ad565b600080fd5b508060405250919050565b600067ffffffffffffffff8211600181146113d2576113d7565b600080fd5b50601f19601f8301169050602081019050919050565b6000602082019050919050565b60008160005260206000209050919050565b600081519050919050565b6000602082019050919050565b60008115159050919050565b6000819050919050565b6000819050919050565b828183376000838301525050505600a265627a7a7230582011ce9c2977a00eb2f638bb252d3a3e9fce079f4522faf6e4d4d7cc082683ecae6c6578706572696d656e74616cf50037",
  "source": "pragma solidity ^0.4.2;\npragma experimental ABIEncoderV2;\n\ncontract Health {\n    struct Patient {\n        uint id;\n        string name;\n        uint age;\n        string nationality;\n        string city;\n        string country;\n        uint balance;\n        uint[] diseases;\n        // mapping(string => Disease) diseases;\n    }\n\n    struct Disease {\n        uint id;\n        string name;\n        string symptoms;\n        string doctor;\n        uint date;\n        uint price;\n    }\n\n    struct Doctor {\n        uint id;\n        string name;\n        string hospital;\n    }\n    \n    mapping (uint => Doctor) public doctors;\n    mapping (uint => Patient) public patients;\n    mapping (uint => Disease) public diseases;\n    uint public patientsCount;\n    uint public doctorsCount;\n    uint public diseasesCount;\n\n    // Constructor\n    function Health() public {\n        patientsCount = 0;\n        doctorsCount = 0;\n        \n        addPatient(\"Ben\", 17, \"Canada\", \"Toronto\", \"Canada\");\n        addPatient(\"Adam\", 22, \"France\", \"Paris\", \"Germany\");\n        addDoctor(\"Philip\", \"Hospital 1\");\n    }\n    // addPateint\n    // test data: \"Amine\", 20, \"Morocco\", \"Karlsruhe\", \"Germany\"\n    function addPatient(string _name, uint _age, string _nationality, string _city, string _country) public {\n        patientsCount++;\n        uint[] memory _diseases;\n        patients[patientsCount] = Patient(patientsCount, _name, _age,\n                                          _nationality, _city, _country, 0, _diseases);\n    }\n\n    // addDisease\n    // TODO: Please solidity implement string arrays!! Now, I need to do a dirty hack on the client now\n    // test data: \"Ben\", \"Cancer\", \"symptom 1\", \"Philip\"\n    function addDiseaseToPatient(string _patientName, string _name, string _symptoms, string _doctor) public {\n        // get patient ID\n        uint _patientId = getPatientIdByName(_patientName);\n        // get the index of the last disease and increment it\n        diseasesCount++;\n        Disease memory d = Disease(diseasesCount, _name, _symptoms, _doctor, now, 15500000000000000);\n        diseases[diseasesCount] = d;\n        patients[_patientId].diseases.push(diseasesCount);\n    }\n    \n    //addDoctor\n    // test data: \"Philip\", \"hospital 1\"\n    function addDoctor(string _name, string _hospital) {\n        doctorsCount++;\n        doctors[doctorsCount] = Doctor(doctorsCount, _name, _hospital);\n    }\n\n    // editPatient\n    // test data: 1, \"Ben\", 90, \"UK\", \"London\", \"UK\", 10\n    function editPatient(uint _id, string _name, uint _age, string _nationality, string _city, string _country, uint _balance) public returns(bool) {\n        uint[] memory _diseases = getPatientDiseasesIds(_id);\n        patients[_id] = Patient(_id, _name, _age, _nationality, _city, _country, _balance, _diseases);\n        return true;\n    }\n\n    // test data: 1\n    function getPatientDiseasesIds(uint _id) returns(uint[]) {\n        uint[] _diseasesArray = patients[_id].diseases;\n        return _diseasesArray;\n    }\n\n    // test data: \"Ben\"\n    function getPatientIdByName(string _name) public returns(uint) {\n        for (uint i = 1; i <= patientsCount; i++) {\n            if (keccak256(patients[i].name) == keccak256(_name)) {\n                return i;\n            }\n        }\n        return 0;\n    }\n\n    // test data: \"philip\"\n    function getDoctorIdByName(string _name) public returns(uint) {\n        for (uint j = 0; j <= doctorsCount; j++) {\n            if (keccak256(doctors[j].name) == keccak256(_name)) {\n                return j;\n            }\n        }\n        return 0;\n    }\n\n    // lookupPatient\n}\n\n\n\n\n// contract BuyRecord is EditRecord {\n//     // Query patiences WIP\n//     function getPatientsPrice(string _disease) private view returns (uint) {\n//         uint buyingPrice;\n//         for (uint x = 1; x <= patientsCount; x++) {\n//             buyingPrice += patients[x].diseases[_disease].price;\n//         }\n//         return buyingPrice;\n//     }\n\n//     Buy Patiences data\n//     function buyPatientsData(string _disease) public returns (uint price, uint numberOfPatients, string[] diseaseCountries, string[] diseaseCities) {\n//         for (uint i = 0; i <= patientsCount; i++) {\n//             if (patients[i].diseases[_disease].name != \"\") {\n//                 price += patients[i].diseases[_disease].price;\n//                 numberOfPatients += 1;\n//                 diseaseCountries.push(patients[i].country);\n//                 diseaseCities.push(patients[i].city);\n//             }\n//         }\n//     }\n// }\n",
  "sourcePath": "/Users/amineafia/Documents/dapps/hexchain/contracts/Health.sol",
  "compiler": {
    "name": "solc",
    "version": "0.4.19+commit.c4cbbb05.Emscripten.clang"
  },
  "schemaVersion": "2.0.0",
  "updatedAt": "2018-03-17T15:53:11.242Z"
}