{
  "contractName": "Health",
  "abi": [
    {
      "constant": true,
      "inputs": [],
      "name": "diseasesCount",
      "outputs": [
        {
          "name": "",
          "type": "uint256"
        }
      ],
      "payable": false,
      "stateMutability": "view",
      "type": "function"
    },
    {
      "constant": true,
      "inputs": [],
      "name": "doctorsCount",
      "outputs": [
        {
          "name": "",
          "type": "uint256"
        }
      ],
      "payable": false,
      "stateMutability": "view",
      "type": "function"
    },
    {
      "constant": true,
      "inputs": [
        {
          "name": "",
          "type": "uint256"
        }
      ],
      "name": "diseases",
      "outputs": [
        {
          "name": "id",
          "type": "uint256"
        },
        {
          "name": "name",
          "type": "string"
        },
        {
          "name": "symptoms",
          "type": "string"
        },
        {
          "name": "doctor",
          "type": "string"
        },
        {
          "name": "date",
          "type": "uint256"
        },
        {
          "name": "price",
          "type": "uint256"
        }
      ],
      "payable": false,
      "stateMutability": "view",
      "type": "function"
    },
    {
      "constant": true,
      "inputs": [
        {
          "name": "",
          "type": "uint256"
        }
      ],
      "name": "doctors",
      "outputs": [
        {
          "name": "id",
          "type": "uint256"
        },
        {
          "name": "name",
          "type": "string"
        },
        {
          "name": "hospital",
          "type": "string"
        }
      ],
      "payable": false,
      "stateMutability": "view",
      "type": "function"
    },
    {
      "constant": true,
      "inputs": [
        {
          "name": "",
          "type": "uint256"
        }
      ],
      "name": "patients",
      "outputs": [
        {
          "name": "id",
          "type": "uint256"
        },
        {
          "name": "name",
          "type": "string"
        },
        {
          "name": "age",
          "type": "uint256"
        },
        {
          "name": "nationality",
          "type": "string"
        },
        {
          "name": "city",
          "type": "string"
        },
        {
          "name": "country",
          "type": "string"
        },
        {
          "name": "balance",
          "type": "uint256"
        },
        {
          "name": "patientDiseasesCount",
          "type": "uint256"
        }
      ],
      "payable": false,
      "stateMutability": "view",
      "type": "function"
    },
    {
      "constant": true,
      "inputs": [],
      "name": "patientsCount",
      "outputs": [
        {
          "name": "",
          "type": "uint256"
        }
      ],
      "payable": false,
      "stateMutability": "view",
      "type": "function"
    },
    {
      "inputs": [],
      "payable": false,
      "stateMutability": "nonpayable",
      "type": "constructor"
    },
    {
      "constant": false,
      "inputs": [
        {
          "name": "_name",
          "type": "string"
        },
        {
          "name": "_age",
          "type": "uint256"
        },
        {
          "name": "_nationality",
          "type": "string"
        },
        {
          "name": "_city",
          "type": "string"
        },
        {
          "name": "_country",
          "type": "string"
        }
      ],
      "name": "addPatient",
      "outputs": [],
      "payable": false,
      "stateMutability": "nonpayable",
      "type": "function"
    },
    {
      "constant": false,
      "inputs": [
        {
          "name": "_name",
          "type": "string"
        },
        {
          "name": "_symptoms",
          "type": "string"
        },
        {
          "name": "_doctor",
          "type": "string"
        }
      ],
      "name": "addDisease",
      "outputs": [],
      "payable": false,
      "stateMutability": "nonpayable",
      "type": "function"
    },
    {
      "constant": false,
      "inputs": [
        {
          "name": "_patientName",
          "type": "string"
        },
        {
          "name": "_name",
          "type": "string"
        },
        {
          "name": "_symptoms",
          "type": "string"
        },
        {
          "name": "_doctor",
          "type": "string"
        }
      ],
      "name": "addDiseaseToPatient",
      "outputs": [],
      "payable": false,
      "stateMutability": "nonpayable",
      "type": "function"
    },
    {
      "constant": false,
      "inputs": [
        {
          "name": "_id",
          "type": "uint256"
        }
      ],
      "name": "getPatientDiseases",
      "outputs": [
        {
          "name": "",
          "type": "uint256[5]"
        }
      ],
      "payable": false,
      "stateMutability": "nonpayable",
      "type": "function"
    },
    {
      "constant": false,
      "inputs": [
        {
          "name": "_name",
          "type": "string"
        },
        {
          "name": "_hospital",
          "type": "string"
        }
      ],
      "name": "addDoctor",
      "outputs": [],
      "payable": false,
      "stateMutability": "nonpayable",
      "type": "function"
    },
    {
      "constant": false,
      "inputs": [
        {
          "name": "_id",
          "type": "uint256"
        },
        {
          "name": "_name",
          "type": "string"
        },
        {
          "name": "_age",
          "type": "uint256"
        },
        {
          "name": "_nationality",
          "type": "string"
        },
        {
          "name": "_city",
          "type": "string"
        },
        {
          "name": "_country",
          "type": "string"
        },
        {
          "name": "_balance",
          "type": "uint256"
        }
      ],
      "name": "editPatient",
      "outputs": [
        {
          "name": "",
          "type": "bool"
        }
      ],
      "payable": false,
      "stateMutability": "nonpayable",
      "type": "function"
    },
    {
      "constant": false,
      "inputs": [
        {
          "name": "_id",
          "type": "uint256"
        }
      ],
      "name": "getPatientDiseasesIds",
      "outputs": [
        {
          "name": "",
          "type": "uint256[5]"
        }
      ],
      "payable": false,
      "stateMutability": "nonpayable",
      "type": "function"
    },
    {
      "constant": false,
      "inputs": [
        {
          "name": "_name",
          "type": "string"
        }
      ],
      "name": "getPatientIdByName",
      "outputs": [
        {
          "name": "",
          "type": "uint256"
        }
      ],
      "payable": false,
      "stateMutability": "nonpayable",
      "type": "function"
    },
    {
      "constant": false,
      "inputs": [
        {
          "name": "_name",
          "type": "string"
        }
      ],
      "name": "getDoctorIdByName",
      "outputs": [
        {
          "name": "",
          "type": "uint256"
        }
      ],
      "payable": false,
      "stateMutability": "nonpayable",
      "type": "function"
    },
    {
      "constant": false,
      "inputs": [
        {
          "name": "_name",
          "type": "string"
        }
      ],
      "name": "getPatientByName",
      "outputs": [
        {
          "name": "",
          "type": "string[3]"
        }
      ],
      "payable": false,
      "stateMutability": "nonpayable",
      "type": "function"
    },
    {
      "constant": true,
      "inputs": [
        {
          "name": "v",
          "type": "uint256"
        }
      ],
      "name": "uintToString",
      "outputs": [
        {
          "name": "str",
          "type": "string"
        }
      ],
      "payable": false,
      "stateMutability": "view",
      "type": "function"
    },
    {
      "constant": false,
      "inputs": [
        {
          "name": "_disease",
          "type": "string"
        },
        {
          "name": "_age",
          "type": "uint256"
        },
        {
          "name": "_country",
          "type": "string"
        }
      ],
      "name": "getDataToBuy",
      "outputs": [
        {
          "name": "",
          "type": "uint256"
        }
      ],
      "payable": false,
      "stateMutability": "nonpayable",
      "type": "function"
    }
  ],
  "bytecode": "0x606060405234156200001057600080fd5b60006003819055506000600481905550620001186040805190810160405280600381526020017f42656e000000000000000000000000000000000000000000000000000000000081525060116040805190810160405280600681526020017f43616e61646100000000000000000000000000000000000000000000000000008152506040805190810160405280600781526020017f546f726f6e746f000000000000000000000000000000000000000000000000008152506040805190810160405280600681526020017f43616e6164610000000000000000000000000000000000000000000000000000815250620002a06401000000000262000c2d176401000000009004565b620002106040805190810160405280600481526020017f4164616d0000000000000000000000000000000000000000000000000000000081525060166040805190810160405280600681526020017f4672616e636500000000000000000000000000000000000000000000000000008152506040805190810160405280600581526020017f50617269730000000000000000000000000000000000000000000000000000008152506040805190810160405280600781526020017f4765726d616e7900000000000000000000000000000000000000000000000000815250620002a06401000000000262000c2d176401000000009004565b6200029a6040805190810160405280600681526020017f5068696c697000000000000000000000000000000000000000000000000000008152506040805190810160405280600a81526020017f486f73706974616c203100000000000000000000000000000000000000000000815250620003e0640100000000026200103e176401000000009004565b62000590565b620002aa62000473565b6003600081548092919060010191905055506101206040519081016040528060035481526020018781526020018681526020018581526020018481526020018381526020016000815260200182815260200160008152506001600060035481526020019081526020016000206000820151816000015560208201518160010190805190602001906200033e9291906200049c565b50604082015181600201556060820151816003019080519060200190620003679291906200049c565b506080820151816004019080519060200190620003869291906200049c565b5060a0820151816005019080519060200190620003a59291906200049c565b5060c0820151816006015560e082015181600701906005620003c992919062000523565b5061010082015181600c0155905050505050505050565b60046000815480929190600101919050555060606040519081016040528060045481526020018381526020018281525060008060045481526020019081526020016000206000820151816000015560208201518160010190805190602001906200044c9291906200049c565b5060408201518160020190805190602001906200046b9291906200049c565b509050505050565b60a0604051908101604052806005905b6000815260200190600190039081620004835790505090565b828054600181600116156101000203166002900490600052602060002090601f016020900481019282601f10620004df57805160ff191683800117855562000510565b8280016001018555821562000510579182015b828111156200050f578251825591602001919060010190620004f2565b5b5090506200051f919062000568565b5090565b826005810192821562000555579160200282015b828111156200055457825182559160200191906001019062000537565b5b50905062000564919062000568565b5090565b6200058d91905b80821115620005895760008160009055506001016200056f565b5090565b90565b6120a680620005a06000396000f3006060604052600436106100fc576000357c0100000000000000000000000000000000000000000000000000000000900463ffffffff168063012f4a761461010157806304bb9bc01461012a57806310dcb0f91461015357806346459b221461018957806346498ce6146101c4578063500a9d84146101e65780635e26f9191461021c5780636a493554146102525780636efb1b841461028857806382c5fbc8146102c057806387ad6536146102e2578063890d9fea1461031857806393119a831461033a578063af45f26414610377578063b6b1289d146103ad578063dc093978146103d6578063ded855e1146103f8578063e93956791461042e575b600080fd5b341561010c57600080fd5b610114610464565b6040516101219190611db2565b60405180910390f35b341561013557600080fd5b61013d61046a565b60405161014a9190611db2565b60405180910390f35b341561015e57600080fd5b610173600461016e9036906115f8565b610470565b6040516101809190611d38565b60405180910390f35b341561019457600080fd5b6101a960046101a4903690611a1b565b610729565b6040516101bb96959493929190611e12565b60405180910390f35b34156101cf57600080fd5b6101e460046101df90369061178d565b610762565b005b34156101f157600080fd5b6102066004610201903690611a4d565b6107e8565b6040516102139190611d75565b60405180910390f35b341561022757600080fd5b61023c60046102379036906115f8565b610935565b6040516102499190611db2565b60405180910390f35b341561025d57600080fd5b610272600461026d903690611a1b565b610a56565b60405161027f9190611d5a565b60405180910390f35b341561029357600080fd5b6102a860046102a3903690611a1b565b610abd565b6040516102b793929190611dcd565b60405180910390f35b34156102cb57600080fd5b6102e060046102db9036906116d2565b610ae5565b005b34156102ed57600080fd5b61030260046102fd903690611a1b565b610bcc565b60405161030f9190611d5a565b60405180910390f35b341561032357600080fd5b6103386004610333903690611917565b610c2d565b005b341561034557600080fd5b61035a6004610355903690611a1b565b610d61565b60405161036e989796959493929190611e88565b60405180910390f35b341561038257600080fd5b610397600461039290369061187d565b610da5565b6040516103a49190611db2565b60405180910390f35b34156103b857600080fd5b6103c0611038565b6040516103cd9190611db2565b60405180910390f35b34156103e157600080fd5b6103f660046103f190369061164b565b61103e565b005b341561040357600080fd5b61041860046104139036906115f8565b6110cd565b6040516104259190611db2565b60405180910390f35b341561043957600080fd5b61044e6004610449903690611a1b565b6111ef565b60405161045b9190611d90565b60405180910390f35b60055481565b60045481565b6104786113bd565b60008090505b6003548111151561072257826040518082805190602001908083835b6020831015156104bf578051825260208201915060208101905060208303925061049a565b6001836020036101000a0380198251168184511680821785525050505050509050019150506040518091039020600019166001600083815260200190815260200160002060010160405180828054600181600116156101000203166002900480156105615780601f1061053f576101008083540402835291820191610561565b820191906000526020600020905b81548152906001019060200180831161054d575b5050915050604051809103902060001916141561071557606060405190810160405280600160008481526020019081526020016000206001018054600181600116156101000203166002900480601f01602080910402602001604051908101604052809291908181526020018280546001816001161561010002031660029004801561062e5780601f106106035761010080835404028352916020019161062e565b820191906000526020600020905b81548152906001019060200180831161061157829003601f168201915b5050505050815260200161065760016000858152602001908152602001600020600201546111ef565b8152602001600160008481526020019081526020016000206005018054600181600116156101000203166002900480601f0160208091040260200160405190810160405280929190818152602001828054600181600116156101000203166002900480156107065780601f106106db57610100808354040283529160200191610706565b820191906000526020600020905b8154815290600101906020018083116106e957829003601f168201915b50505050508152509150610723565b808060010191505061047e565b5b50919050565b60026020528060005260406000206000915090508060000154908060010190806002019080600301908060040154908060050154905086565b600061076f848484610ae5565b610778856110cd565b905060016000828152602001908152602001600020600c01600081548092919060010191905055506005546001600083815260200190815260200160002060070160016000848152602001908152602001600020600c01546005811015156107dc57fe5b01819055505050505050565b60006107f26113eb565b60006107fd8a610a56565b9150600160008b8152602001908152602001600020600c01549050610120604051908101604052808b81526020018a815260200189815260200188815260200187815260200186815260200185815260200183815260200182815250600160008c8152602001908152602001600020600082015181600001556020820151816001019080519060200190610892929190611413565b506040820151816002015560608201518160030190805190602001906108b9929190611413565b5060808201518160040190805190602001906108d6929190611413565b5060a08201518160050190805190602001906108f3929190611413565b5060c0820151816006015560e082015181600701906005610915929190611493565b5061010082015181600c0155905050600192505050979650505050505050565b600080600090505b60045481111515610a4b57826040518082805190602001908083835b60208310151561097e5780518252602082019150602081019050602083039250610959565b6001836020036101000a0380198251168184511680821785525050505050509050019150506040518091039020600019166000808381526020019081526020016000206001016040518082805460018160011615610100020316600290048015610a1f5780601f106109fd576101008083540402835291820191610a1f565b820191906000526020600020905b815481529060010190602001808311610a0b575b50509150506040518091039020600019161415610a3e57809150610a50565b808060010191505061093d565b600091505b50919050565b610a5e6113eb565b600060016000848152602001908152602001600020600701905080600580602002604051908101604052809291908260058015610ab0576020028201915b815481526020019060010190808311610a9c575b5050505050915050919050565b6000602052806000526040600020600091509050806000015490806001019080600201905083565b610aed6114d3565b60056000815480929190600101919050555060c06040519081016040528060055481526020018581526020018481526020018381526020014281526020016637112afa04c000815250905080600260006005548152602001908152602001600020600082015181600001556020820151816001019080519060200190610b74929190611413565b506040820151816002019080519060200190610b91929190611413565b506060820151816003019080519060200190610bae929190611413565b506080820151816004015560a0820151816005015590505050505050565b610bd46113eb565b60016000838152602001908152602001600020600701600580602002604051908101604052809291908260058015610c21576020028201915b815481526020019060010190808311610c0d575b50505050509050919050565b610c356113eb565b600360008154809291906001019190505550610120604051908101604052806003548152602001878152602001868152602001858152602001848152602001838152602001600081526020018281526020016000815250600160006003548152602001908152602001600020600082015181600001556020820151816001019080519060200190610cc7929190611413565b50604082015181600201556060820151816003019080519060200190610cee929190611413565b506080820151816004019080519060200190610d0b929190611413565b5060a0820151816005019080519060200190610d28929190611413565b5060c0820151816006015560e082015181600701906005610d4a929190611493565b5061010082015181600c0155905050505050505050565b6001602052806000526040600020600091509050806000015490806001019080600201549080600301908060040190806005019080600601549080600c0154905088565b60008060008060008092505b6003548311151561102a57866001600085815260200190815260200160002060020154148015610ec75750856040518082805190602001908083835b602083101515610e125780518252602082019150602081019050602083039250610ded565b6001836020036101000a038019825116818451168082178552505050505050905001915050604051809103902060001916600160008581526020019081526020016000206005016040518082805460018160011615610100020316600290048015610eb45780601f10610e92576101008083540402835291820191610eb4565b820191906000526020600020905b815481529060010190602001808311610ea0575b5050915050604051809103902060001916145b1561101d57600091505b60016000848152602001908152602001600020600c01548211151561101c576001600084815260200190815260200160002060070182600581101515610f1357fe5b01549050876040518082805190602001908083835b602083101515610f4d5780518252602082019150602081019050602083039250610f28565b6001836020036101000a038019825116818451168082178552505050505050905001915050604051809103902060001916600260008381526020019081526020016000206001016040518082805460018160011615610100020316600290048015610fef5780601f10610fcd576101008083540402835291820191610fef565b820191906000526020600020905b815481529060010190602001808311610fdb575b5050915050604051809103902060001916141561100f5783806001019450505b8180600101925050610ed1565b5b8280600101935050610db1565b839450505050509392505050565b60035481565b60046000815480929190600101919050555060606040519081016040528060045481526020018381526020018281525060008060045481526020019081526020016000206000820151816000015560208201518160010190805190602001906110a8929190611413565b5060408201518160020190805190602001906110c5929190611413565b509050505050565b600080600190505b600354811115156111e457826040518082805190602001908083835b60208310151561111657805182526020820191506020810190506020830392506110f1565b6001836020036101000a0380198251168184511680821785525050505050509050019150506040518091039020600019166001600083815260200190815260200160002060010160405180828054600181600116156101000203166002900480156111b85780601f106111965761010080835404028352918201916111b8565b820191906000526020600020905b8154815290600101906020018083116111a4575b505091505060405180910390206000191614156111d7578091506111e9565b80806001019150506110d5565b600091505b50919050565b6111f761151c565b6000611201611530565b60008061120c611530565b600060649550856040518059106112205750595b9080825280601f01601f19166020018201604052509450600093505b6000881415156112d357600a8881151561125257fe5b069250600a8881151561126157fe5b049750826030017f010000000000000000000000000000000000000000000000000000000000000002858580600101965081518110151561129e57fe5b9060200101907effffffffffffffffffffffffffffffffffffffffffffffffffffffffffffff1916908160001a90535061123c565b600184016040518059106112e45750595b9080825280601f01601f19166020018201604052509150600090505b83811115156113af578481850381518110151561131957fe5b9060200101517f010000000000000000000000000000000000000000000000000000000000000090047f010000000000000000000000000000000000000000000000000000000000000002828281518110151561137257fe5b9060200101907effffffffffffffffffffffffffffffffffffffffffffffffffffffffffffff1916908160001a9053508080600101915050611300565b819650505050505050919050565b6060604051908101604052806003905b6113d5611544565b8152602001906001900390816113cd5790505090565b60a0604051908101604052806005905b60008152602001906001900390816113fb5790505090565b828054600181600116156101000203166002900490600052602060002090601f016020900481019282601f1061145457805160ff1916838001178555611482565b82800160010185558215611482579182015b82811115611481578251825591602001919060010190611466565b5b50905061148f9190611558565b5090565b82600581019282156114c2579160200282015b828111156114c15782518255916020019190600101906114a6565b5b5090506114cf9190611558565b5090565b60c060405190810160405280600081526020016114ee611544565b81526020016114fb611544565b8152602001611508611544565b815260200160008152602001600081525090565b602060405190810160405280600081525090565b602060405190810160405280600081525090565b602060405190810160405280600081525090565b61157a91905b8082111561157657600081600090555060010161155e565b5090565b90565b600082601f8301126000811461159257611597565b600080fd5b5081356115ab6115a682611f58565b611f22565b915080825260208301602083018583830111600181146115ca576115cf565b600080fd5b506115db838284612019565b50505092915050565b60006115f0823561200f565b905092915050565b60006020828403126001811461160d57611612565b600080fd5b50600082013567ffffffffffffffff81116001811461163057611635565b600080fd5b506116428482850161157d565b91505092915050565b6000806040838503126001811461166157611666565b600080fd5b50600083013567ffffffffffffffff81116001811461168457611689565b600080fd5b506116968582860161157d565b925050602083013567ffffffffffffffff8111600181146116b6576116bb565b600080fd5b506116c88582860161157d565b9150509250929050565b6000806000606084860312600181146116ea576116ef565b600080fd5b50600084013567ffffffffffffffff81116001811461170d57611712565b600080fd5b5061171f8682870161157d565b935050602084013567ffffffffffffffff81116001811461173f57611744565b600080fd5b506117518682870161157d565b925050604084013567ffffffffffffffff81116001811461177157611776565b600080fd5b506117838682870161157d565b9150509250925092565b600080600080608085870312600181146117a6576117ab565b600080fd5b50600085013567ffffffffffffffff8111600181146117c9576117ce565b600080fd5b506117db8782880161157d565b945050602085013567ffffffffffffffff8111600181146117fb57611800565b600080fd5b5061180d8782880161157d565b935050604085013567ffffffffffffffff81116001811461182d57611832565b600080fd5b5061183f8782880161157d565b925050606085013567ffffffffffffffff81116001811461185f57611864565b600080fd5b506118718782880161157d565b91505092959194509250565b6000806000606084860312600181146118955761189a565b600080fd5b50600084013567ffffffffffffffff8111600181146118b8576118bd565b600080fd5b506118ca8682870161157d565b93505060206118db868287016115e4565b925050604084013567ffffffffffffffff8111600181146118fb57611900565b600080fd5b5061190d8682870161157d565b9150509250925092565b600080600080600060a0868803126001811461193257611937565b600080fd5b50600086013567ffffffffffffffff8111600181146119555761195a565b600080fd5b506119678882890161157d565b9550506020611978888289016115e4565b945050604086013567ffffffffffffffff8111600181146119985761199d565b600080fd5b506119aa8882890161157d565b935050606086013567ffffffffffffffff8111600181146119ca576119cf565b600080fd5b506119dc8882890161157d565b925050608086013567ffffffffffffffff8111600181146119fc57611a01565b600080fd5b50611a0e8882890161157d565b9150509295509295909350565b600060208284031260018114611a3057611a35565b600080fd5b506000611a44848285016115e4565b91505092915050565b600080600080600080600060e0888a031260018114611a6b57611a70565b600080fd5b506000611a7f8a828b016115e4565b975050602088013567ffffffffffffffff811160018114611a9f57611aa4565b600080fd5b50611ab18a828b0161157d565b9650506040611ac28a828b016115e4565b955050606088013567ffffffffffffffff811160018114611ae257611ae7565b600080fd5b50611af48a828b0161157d565b945050608088013567ffffffffffffffff811160018114611b1457611b19565b600080fd5b50611b268a828b0161157d565b93505060a088013567ffffffffffffffff811160018114611b4657611b4b565b600080fd5b50611b588a828b0161157d565b92505060c0611b698a828b016115e4565b91505092959891949750929550565b6000611b8382611fb3565b83602082028501611b9385611f8d565b60005b84811015611bcc578383038852611bae838351611c6d565b9250611bb982611fdf565b9150602088019750600181019050611b96565b508196508694505050505092915050565b611be681611fbe565b611bef82611f97565b60005b82811015611c2157611c05858351611d29565b611c0e82611fec565b9150602085019450600181019050611bf2565b5050505050565b611c3181611ff9565b82525050565b6000611c4282611fd4565b808452611c56816020860160208601612028565b611c5f8161205b565b602085010191505092915050565b6000611c7882611fc9565b808452611c8c816020860160208601612028565b611c958161205b565b602085010191505092915050565b600081546001811660008114611cc05760018114611ce057611d21565b607f600283041680865260ff198316602087015260408601935050611d21565b60028204808652602086019550611cf685611fa1565b60005b82811015611d1857815481890152600182019150602081019050611cf9565b80880195505050505b505092915050565b611d3281612005565b82525050565b60006020820190508181036000830152611d528184611b78565b905092915050565b600060a082019050611d6f6000830184611bdd565b92915050565b6000602082019050611d8a6000830184611c28565b92915050565b60006020820190508181036000830152611daa8184611c37565b905092915050565b6000602082019050611dc76000830184611d29565b92915050565b6000606082019050611de26000830186611d29565b8181036020830152611df48185611ca3565b90508181036040830152611e088184611ca3565b9050949350505050565b600060c082019050611e276000830189611d29565b8181036020830152611e398188611ca3565b90508181036040830152611e4d8187611ca3565b90508181036060830152611e618186611ca3565b9050611e706080830185611d29565b611e7d60a0830184611d29565b979650505050505050565b600061010082019050611e9e600083018b611d29565b8181036020830152611eb0818a611ca3565b9050611ebf6040830189611d29565b8181036060830152611ed18188611ca3565b90508181036080830152611ee58187611ca3565b905081810360a0830152611ef98186611ca3565b9050611f0860c0830185611d29565b611f1560e0830184611d29565b9998505050505050505050565b6000604051905081810181811067ffffffffffffffff82111760018114611f4857611f4d565b600080fd5b508060405250919050565b600067ffffffffffffffff821160018114611f7257611f77565b600080fd5b50601f19601f8301169050602081019050919050565b6000819050919050565b6000819050919050565b60008160005260206000209050919050565b600060039050919050565b600060059050919050565b600081519050919050565b600081519050919050565b6000602082019050919050565b6000602082019050919050565b60008115159050919050565b6000819050919050565b6000819050919050565b82818337600083830152505050565b60005b8381101561204657808201518184015260208101905061202b565b83811115612055576000848401525b50505050565b6000601f19601f83011690509190505600a265627a7a72305820c3f2325b63984f57c78b8d3813480518b6efb0395f3f6399b324ff9bcf084f906c6578706572696d656e74616cf50037",
  "source": "pragma solidity ^0.4.2;\r\npragma experimental ABIEncoderV2;\r\n\r\ncontract Health {\r\n    struct Patient {\r\n        uint id;\r\n        string name;\r\n        uint age;\r\n        string nationality;\r\n        string city;\r\n        string country;\r\n        uint balance;\r\n        uint[5] diseases;\r\n        uint patientDiseasesCount;\r\n        // mapping(string => Disease) diseases;\r\n    }\r\n\r\n    struct Disease {\r\n        uint id;\r\n        string name;\r\n        string symptoms;\r\n        string doctor;\r\n        uint date;\r\n        uint price;\r\n    }\r\n\r\n    struct Doctor {\r\n        uint id;\r\n        string name;\r\n        string hospital;\r\n    }\r\n    \r\n    mapping (uint => Doctor) public doctors;\r\n    mapping (uint => Patient) public patients;\r\n    mapping (uint => Disease) public diseases;\r\n    uint public patientsCount;\r\n    uint public doctorsCount;\r\n    uint public diseasesCount;\r\n\r\n    // Constructor\r\n    function Health() public {\r\n        patientsCount = 0;\r\n        doctorsCount = 0;\r\n        \r\n        addPatient(\"Ben\", 17, \"Canada\", \"Toronto\", \"Canada\");\r\n        addPatient(\"Adam\", 22, \"France\", \"Paris\", \"Germany\");\r\n        addDoctor(\"Philip\", \"Hospital 1\");\r\n    }\r\n    // addPateint\r\n    // test data: \"Amine\", 20, \"Morocco\", \"Karlsruhe\", \"Germany\"\r\n    function addPatient(string _name, uint _age, string _nationality, string _city, string _country) public {\r\n        patientsCount++;\r\n        uint[5] memory _diseases;\r\n        patients[patientsCount] = Patient(patientsCount, _name, _age,\r\n                                          _nationality, _city, _country, 0, _diseases, 0);\r\n    }\r\n\r\n    // test data: \"Cancer\", \"symptom 1\", \"Dr. Philip\"\r\n    function addDisease(string _name, string _symptoms, string _doctor) {\r\n        diseasesCount++;\r\n        Disease memory d = Disease(diseasesCount, _name, _symptoms, _doctor, now, 15500000000000000);\r\n        diseases[diseasesCount] = d;\r\n    }\r\n\r\n    // addDisease\r\n    // TODO: Please solidity implement string arrays!! Now, I need to do a dirty hack on the client now\r\n    // test data: \"Ben\", \"Cancer\", \"symptom 1\", \"Philip\"\r\n    function addDiseaseToPatient(string _patientName, string _name, string _symptoms, string _doctor) public {\r\n        addDisease(_name, _symptoms, _doctor);\r\n        uint _patientId = getPatientIdByName(_patientName);\r\n        patients[_patientId].patientDiseasesCount++;\r\n        patients[_patientId].diseases[patients[_patientId].patientDiseasesCount] = diseasesCount;\r\n    }\r\n    \r\n    function getPatientDiseases(uint _id) public returns(uint[5]) {\r\n        return patients[_id].diseases;\r\n    }\r\n    \r\n    //addDoctor\r\n    // test data: \"Philip\", \"hospital 100\"\r\n    function addDoctor(string _name, string _hospital) {\r\n        doctorsCount++;\r\n        doctors[doctorsCount] = Doctor(doctorsCount, _name, _hospital);\r\n    }\r\n\r\n    // editPatient\r\n    // test data: 1, \"Ben\", 27, \"UK\", \"London\", \"UK\", 10\r\n    function editPatient(uint _id, string _name, uint _age, string _nationality, string _city, string _country, uint _balance) public returns(bool) {\r\n        uint[5] memory _diseases = getPatientDiseasesIds(_id);\r\n        uint _pCount = patients[_id].patientDiseasesCount;\r\n        patients[_id] = Patient(_id, _name, _age, _nationality, _city, _country, _balance, _diseases, _pCount);\r\n        return true;\r\n    }\r\n\r\n    // test data: 1\r\n    function getPatientDiseasesIds(uint _id) returns(uint[5]) {\r\n        uint[5] _diseasesArray = patients[_id].diseases;\r\n        return _diseasesArray;\r\n    }\r\n\r\n    // test data: \"Ben\"\r\n    function getPatientIdByName(string _name) public returns(uint) {\r\n        for (uint i = 1; i <= patientsCount; i++) {\r\n            if (keccak256(patients[i].name) == keccak256(_name)) {\r\n                return i;\r\n            }\r\n        }\r\n        return 0;\r\n    }\r\n\r\n    // test data: \"Philip\"\r\n    function getDoctorIdByName(string _name) public returns(uint) {\r\n        for (uint j = 0; j <= doctorsCount; j++) {\r\n            if (keccak256(doctors[j].name) == keccak256(_name)) {\r\n                return j;\r\n            }\r\n        }\r\n        return 0;\r\n    }\r\n\r\n    // lookupPatient\r\n    function getPatientByName(string _name) public returns(string[3]) {\r\n        for (uint x = 0; x <= patientsCount; x++) {\r\n            if (keccak256(patients[x].name) == keccak256(_name)) {\r\n                return [patients[x].name, uintToString(patients[x].age), patients[x].country];\r\n            }\r\n        }\r\n    }\r\n    \r\n    function uintToString(uint v) public constant returns (string str) {\r\n        uint maxlength = 100;\r\n        bytes memory reversed = new bytes(maxlength);\r\n        uint i = 0;\r\n        while (v != 0) {\r\n            uint remainder = v % 10;\r\n            v = v / 10;\r\n            reversed[i++] = byte(48 + remainder);\r\n        }\r\n        bytes memory s = new bytes(i + 1);\r\n        for (uint j = 0; j <= i; j++) {\r\n            s[j] = reversed[i - j];\r\n        }\r\n        str = string(s);\r\n    }\r\n\r\n    // getdataToBuy\r\n    function getDataToBuy(string _disease, uint _age, string _country) public returns(uint) {\r\n        uint numberOfSelectedPatients;\r\n\r\n        for ( uint k = 0; k <= patientsCount; k++) {\r\n            if (patients[k].age == _age && keccak256(patients[k].country) == keccak256(_country)) {\r\n                    for (uint z = 0; z <= patients[k].patientDiseasesCount; z++) {\r\n                        uint tmp = patients[k].diseases[z];\r\n                        if (keccak256(diseases[tmp].name) == keccak256(_disease)) {\r\n                            numberOfSelectedPatients++;\r\n                        }\r\n                    }\r\n            }\r\n        }\r\n        return numberOfSelectedPatients;\r\n    }\r\n\r\n/*\r\n    function buyData() payable {\r\n        this.address.transfer(10);\r\n    }\r\n   */ \r\n}\r\n\r\n\r\n\r\n\r\n// contract BuyRecord is EditRecord {\r\n//     // Query patiences WIP\r\n//     function getPatientsPrice(string _disease) private view returns (uint) {\r\n//         uint buyingPrice;\r\n//         for (uint x = 1; x <= patientsCount; x++) {\r\n//             buyingPrice += patients[x].diseases[_disease].price;\r\n//         }\r\n//         return buyingPrice;\r\n//     }\r\n\r\n//     Buy Patiences data\r\n//     function buyPatientsData(string _disease) public returns (uint price, uint numberOfPatients, string[] diseaseCountries, string[] diseaseCities) {\r\n//         for (uint i = 0; i <= patientsCount; i++) {\r\n//             if (patients[i].diseases[_disease].name != \"\") {\r\n//                 price += patients[i].diseases[_disease].price;\r\n//                 numberOfPatients += 1;\r\n//                 diseaseCountries.push(patients[i].country);\r\n//                 diseaseCities.push(patients[i].city);\r\n//             }\r\n//         }\r\n//     }\r\n// }\r\n",
  "sourcePath": "D:\\Dev\\Git\\hexchain\\contracts\\Health.sol",
  "compiler": {
    "name": "solc",
    "version": "0.4.19+commit.c4cbbb05.Emscripten.clang"
  },
  "schemaVersion": "2.0.0",
  "updatedAt": "2018-03-17T19:08:55.548Z"
}