{
  "contractName": "Health",
  "abi": [
    {
      "constant": true,
      "inputs": [],
      "name": "diseasesCount",
      "outputs": [
        {
          "name": "",
          "type": "uint256"
        }
      ],
      "payable": false,
      "stateMutability": "view",
      "type": "function"
    },
    {
      "constant": true,
      "inputs": [],
      "name": "doctorsCount",
      "outputs": [
        {
          "name": "",
          "type": "uint256"
        }
      ],
      "payable": false,
      "stateMutability": "view",
      "type": "function"
    },
    {
      "constant": true,
      "inputs": [
        {
          "name": "",
          "type": "uint256"
        }
      ],
      "name": "diseases",
      "outputs": [
        {
          "name": "id",
          "type": "uint256"
        },
        {
          "name": "name",
          "type": "string"
        },
        {
          "name": "symptoms",
          "type": "string"
        },
        {
          "name": "doctor",
          "type": "string"
        },
        {
          "name": "date",
          "type": "uint256"
        },
        {
          "name": "price",
          "type": "uint256"
        }
      ],
      "payable": false,
      "stateMutability": "view",
      "type": "function"
    },
    {
      "constant": true,
      "inputs": [
        {
          "name": "",
          "type": "uint256"
        }
      ],
      "name": "doctors",
      "outputs": [
        {
          "name": "id",
          "type": "uint256"
        },
        {
          "name": "name",
          "type": "string"
        },
        {
          "name": "hospital",
          "type": "string"
        }
      ],
      "payable": false,
      "stateMutability": "view",
      "type": "function"
    },
    {
      "constant": true,
      "inputs": [
        {
          "name": "",
          "type": "uint256"
        }
      ],
      "name": "patients",
      "outputs": [
        {
          "name": "id",
          "type": "uint256"
        },
        {
          "name": "name",
          "type": "string"
        },
        {
          "name": "age",
          "type": "uint256"
        },
        {
          "name": "nationality",
          "type": "string"
        },
        {
          "name": "city",
          "type": "string"
        },
        {
          "name": "country",
          "type": "string"
        },
        {
          "name": "balance",
          "type": "uint256"
        }
      ],
      "payable": false,
      "stateMutability": "view",
      "type": "function"
    },
    {
      "constant": true,
      "inputs": [],
      "name": "patientsCount",
      "outputs": [
        {
          "name": "",
          "type": "uint256"
        }
      ],
      "payable": false,
      "stateMutability": "view",
      "type": "function"
    },
    {
      "inputs": [],
      "payable": false,
      "stateMutability": "nonpayable",
      "type": "constructor"
    },
    {
      "constant": false,
      "inputs": [
        {
          "name": "_name",
          "type": "string"
        },
        {
          "name": "_age",
          "type": "uint256"
        },
        {
          "name": "_nationality",
          "type": "string"
        },
        {
          "name": "_city",
          "type": "string"
        },
        {
          "name": "_country",
          "type": "string"
        }
      ],
      "name": "addPatient",
      "outputs": [],
      "payable": false,
      "stateMutability": "nonpayable",
      "type": "function"
    },
    {
      "constant": false,
      "inputs": [
        {
          "name": "_patientName",
          "type": "string"
        },
        {
          "name": "_name",
          "type": "string"
        },
        {
          "name": "_symptoms",
          "type": "string"
        },
        {
          "name": "_doctor",
          "type": "string"
        }
      ],
      "name": "addDiseaseToPatient",
      "outputs": [],
      "payable": false,
      "stateMutability": "nonpayable",
      "type": "function"
    },
    {
      "constant": false,
      "inputs": [
        {
          "name": "_name",
          "type": "string"
        },
        {
          "name": "_hospital",
          "type": "string"
        }
      ],
      "name": "addDoctor",
      "outputs": [],
      "payable": false,
      "stateMutability": "nonpayable",
      "type": "function"
    },
    {
      "constant": false,
      "inputs": [
        {
          "name": "_id",
          "type": "uint256"
        },
        {
          "name": "_name",
          "type": "string"
        },
        {
          "name": "_age",
          "type": "uint256"
        },
        {
          "name": "_nationality",
          "type": "string"
        },
        {
          "name": "_city",
          "type": "string"
        },
        {
          "name": "_country",
          "type": "string"
        },
        {
          "name": "_balance",
          "type": "uint256"
        }
      ],
      "name": "editPatient",
      "outputs": [
        {
          "name": "",
          "type": "bool"
        }
      ],
      "payable": false,
      "stateMutability": "nonpayable",
      "type": "function"
    },
    {
      "constant": false,
      "inputs": [
        {
          "name": "_id",
          "type": "uint256"
        }
      ],
      "name": "getPatientDiseasesIds",
      "outputs": [
        {
          "name": "",
          "type": "uint256[]"
        }
      ],
      "payable": false,
      "stateMutability": "nonpayable",
      "type": "function"
    },
    {
      "constant": false,
      "inputs": [
        {
          "name": "_name",
          "type": "string"
        }
      ],
      "name": "getPatientIdByName",
      "outputs": [
        {
          "name": "",
          "type": "uint256"
        }
      ],
      "payable": false,
      "stateMutability": "nonpayable",
      "type": "function"
    },
    {
      "constant": false,
      "inputs": [
        {
          "name": "_name",
          "type": "string"
        }
      ],
      "name": "getDoctorIdByName",
      "outputs": [
        {
          "name": "",
          "type": "uint256"
        }
      ],
      "payable": false,
      "stateMutability": "nonpayable",
      "type": "function"
    },
    {
      "constant": false,
      "inputs": [
        {
          "name": "_name",
          "type": "string"
        }
      ],
      "name": "getPatientByName",
      "outputs": [
        {
          "name": "",
          "type": "string[3]"
        }
      ],
      "payable": false,
      "stateMutability": "nonpayable",
      "type": "function"
    },
    {
      "constant": true,
      "inputs": [
        {
          "name": "v",
          "type": "uint256"
        }
      ],
      "name": "uintToString",
      "outputs": [
        {
          "name": "str",
          "type": "string"
        }
      ],
      "payable": false,
      "stateMutability": "view",
      "type": "function"
    }
  ],
  "bytecode": "0x606060405234156200001057600080fd5b60006003819055506000600481905550620001186040805190810160405280600381526020017f42656e000000000000000000000000000000000000000000000000000000000081525060116040805190810160405280600681526020017f43616e61646100000000000000000000000000000000000000000000000000008152506040805190810160405280600781526020017f546f726f6e746f000000000000000000000000000000000000000000000000008152506040805190810160405280600681526020017f43616e6164610000000000000000000000000000000000000000000000000000815250620002a06401000000000262000acf176401000000009004565b620002106040805190810160405280600481526020017f4164616d0000000000000000000000000000000000000000000000000000000081525060166040805190810160405280600681526020017f4672616e636500000000000000000000000000000000000000000000000000008152506040805190810160405280600581526020017f50617269730000000000000000000000000000000000000000000000000000008152506040805190810160405280600781526020017f4765726d616e7900000000000000000000000000000000000000000000000000815250620002a06401000000000262000acf176401000000009004565b6200029a6040805190810160405280600681526020017f5068696c697000000000000000000000000000000000000000000000000000008152506040805190810160405280600a81526020017f486f73706974616c203100000000000000000000000000000000000000000000815250620003d36401000000000262000c3a176401000000009004565b6200057b565b620002aa62000466565b6003600081548092919060010191905055506101006040519081016040528060035481526020018781526020018681526020018581526020018481526020018381526020016000815260200182815250600160006003548152602001908152602001600020600082015181600001556020820151816001019080519060200190620003379291906200047a565b50604082015181600201556060820151816003019080519060200190620003609291906200047a565b5060808201518160040190805190602001906200037f9291906200047a565b5060a08201518160050190805190602001906200039e9291906200047a565b5060c0820151816006015560e0820151816007019080519060200190620003c792919062000501565b50905050505050505050565b60046000815480929190600101919050555060606040519081016040528060045481526020018381526020018281525060008060045481526020019081526020016000206000820151816000015560208201518160010190805190602001906200043f9291906200047a565b5060408201518160020190805190602001906200045e9291906200047a565b509050505050565b602060405190810160405280600081525090565b828054600181600116156101000203166002900490600052602060002090601f016020900481019282601f10620004bd57805160ff1916838001178555620004ee565b82800160010185558215620004ee579182015b82811115620004ed578251825591602001919060010190620004d0565b5b509050620004fd919062000553565b5090565b82805482825590600052602060002090810192821562000540579160200282015b828111156200053f57825182559160200191906001019062000522565b5b5090506200054f919062000553565b5090565b6200057891905b80821115620005745760008160009055506001016200055a565b5090565b90565b611b7d806200058b6000396000f3006060604052600436106100db576000357c0100000000000000000000000000000000000000000000000000000000900463ffffffff168063012f4a76146100e057806304bb9bc01461010957806310dcb0f91461013257806346459b221461016857806346498ce6146101a3578063500a9d84146101c55780635e26f919146101fb5780636a493554146102315780636efb1b8414610267578063890d9fea1461029f57806393119a83146102c1578063b6b1289d146102fd578063dc09397814610326578063ded855e114610348578063e93956791461037e575b600080fd5b34156100eb57600080fd5b6100f36103b4565b6040516101009190611895565b60405180910390f35b341561011457600080fd5b61011c6103ba565b6040516101299190611895565b60405180910390f35b341561013d57600080fd5b610152600461014d903690611219565b6103c0565b60405161015f9190611814565b60405180910390f35b341561017357600080fd5b61018860046101839036906114e7565b610679565b60405161019a969594939291906118f5565b60405180910390f35b34156101ae57600080fd5b6101c360046101be9036906112f3565b6106b2565b005b34156101d057600080fd5b6101e560046101e0903690611519565b6107e7565b6040516101f29190611858565b60405180910390f35b341561020657600080fd5b61021b6004610216903690611219565b61090c565b6040516102289190611895565b60405180910390f35b341561023c57600080fd5b610251600461024c9036906114e7565b610a2d565b60405161025e9190611836565b60405180910390f35b341561027257600080fd5b61028760046102829036906114e7565b610aa7565b604051610296939291906118b0565b60405180910390f35b34156102aa57600080fd5b6102bf60046102ba9036906113e3565b610acf565b005b34156102cc57600080fd5b6102e160046102dc9036906114e7565b610bf6565b6040516102f4979695949392919061196b565b60405180910390f35b341561030857600080fd5b610310610c34565b60405161031d9190611895565b60405180910390f35b341561033157600080fd5b610346600461034190369061126c565b610c3a565b005b341561035357600080fd5b6103686004610363903690611219565b610cc9565b6040516103759190611895565b60405180910390f35b341561038957600080fd5b61039e60046103999036906114e7565b610deb565b6040516103ab9190611873565b60405180910390f35b60055481565b60045481565b6103c8610fb9565b60008090505b6003548111151561067257826040518082805190602001908083835b60208310151561040f57805182526020820191506020810190506020830392506103ea565b6001836020036101000a0380198251168184511680821785525050505050509050019150506040518091039020600019166001600083815260200190815260200160002060010160405180828054600181600116156101000203166002900480156104b15780601f1061048f5761010080835404028352918201916104b1565b820191906000526020600020905b81548152906001019060200180831161049d575b5050915050604051809103902060001916141561066557606060405190810160405280600160008481526020019081526020016000206001018054600181600116156101000203166002900480601f01602080910402602001604051908101604052809291908181526020018280546001816001161561010002031660029004801561057e5780601f106105535761010080835404028352916020019161057e565b820191906000526020600020905b81548152906001019060200180831161056157829003601f168201915b505050505081526020016105a76001600085815260200190815260200160002060020154610deb565b8152602001600160008481526020019081526020016000206005018054600181600116156101000203166002900480601f0160208091040260200160405190810160405280929190818152602001828054600181600116156101000203166002900480156106565780601f1061062b57610100808354040283529160200191610656565b820191906000526020600020905b81548152906001019060200180831161063957829003601f168201915b50505050508152509150610673565b80806001019150506103ce565b5b50919050565b60026020528060005260406000206000915090508060000154908060010190806002019080600301908060040154908060050154905086565b60006106bc610fe7565b6106c586610cc9565b915060056000815480929190600101919050555060c06040519081016040528060055481526020018681526020018581526020018481526020014281526020016637112afa04c00081525090508060026000600554815260200190815260200160002060008201518160000155602082015181600101908051906020019061074e929190611030565b50604082015181600201908051906020019061076b929190611030565b506060820151816003019080519060200190610788929190611030565b506080820151816004015560a082015181600501559050506001600083815260200190815260200160002060070180548060010182816107c891906110b0565b9160005260206000209001600060055490919091505550505050505050565b60006107f16110dc565b6107fa89610a2d565b9050610100604051908101604052808a815260200189815260200188815260200187815260200186815260200185815260200184815260200182815250600160008b8152602001908152602001600020600082015181600001556020820151816001019080519060200190610870929190611030565b50604082015181600201556060820151816003019080519060200190610897929190611030565b5060808201518160040190805190602001906108b4929190611030565b5060a08201518160050190805190602001906108d1929190611030565b5060c0820151816006015560e08201518160070190805190602001906108f89291906110f0565b509050506001915050979650505050505050565b600080600090505b60045481111515610a2257826040518082805190602001908083835b6020831015156109555780518252602082019150602081019050602083039250610930565b6001836020036101000a03801982511681845116808217855250505050505090500191505060405180910390206000191660008083815260200190815260200160002060010160405180828054600181600116156101000203166002900480156109f65780601f106109d45761010080835404028352918201916109f6565b820191906000526020600020905b8154815290600101906020018083116109e2575b50509150506040518091039020600019161415610a1557809150610a27565b8080600101915050610914565b600091505b50919050565b610a356110dc565b600060016000848152602001908152602001600020600701905080805480602002602001604051908101604052809291908181526020018280548015610a9a57602002820191906000526020600020905b815481526020019060010190808311610a86575b5050505050915050919050565b6000602052806000526040600020600091509050806000015490806001019080600201905083565b610ad76110dc565b6003600081548092919060010191905055506101006040519081016040528060035481526020018781526020018681526020018581526020018481526020018381526020016000815260200182815250600160006003548152602001908152602001600020600082015181600001556020820151816001019080519060200190610b62929190611030565b50604082015181600201556060820151816003019080519060200190610b89929190611030565b506080820151816004019080519060200190610ba6929190611030565b5060a0820151816005019080519060200190610bc3929190611030565b5060c0820151816006015560e0820151816007019080519060200190610bea9291906110f0565b50905050505050505050565b600160205280600052604060002060009150905080600001549080600101908060020154908060030190806004019080600501908060060154905087565b60035481565b6004600081548092919060010191905055506060604051908101604052806004548152602001838152602001828152506000806004548152602001908152602001600020600082015181600001556020820151816001019080519060200190610ca4929190611030565b506040820151816002019080519060200190610cc1929190611030565b509050505050565b600080600190505b60035481111515610de057826040518082805190602001908083835b602083101515610d125780518252602082019150602081019050602083039250610ced565b6001836020036101000a038019825116818451168082178552505050505050905001915050604051809103902060001916600160008381526020019081526020016000206001016040518082805460018160011615610100020316600290048015610db45780601f10610d92576101008083540402835291820191610db4565b820191906000526020600020905b815481529060010190602001808311610da0575b50509150506040518091039020600019161415610dd357809150610de5565b8080600101915050610cd1565b600091505b50919050565b610df361113d565b6000610dfd611151565b600080610e08611151565b60006064955085604051805910610e1c5750595b9080825280601f01601f19166020018201604052509450600093505b600088141515610ecf57600a88811515610e4e57fe5b069250600a88811515610e5d57fe5b049750826030017f0100000000000000000000000000000000000000000000000000000000000000028585806001019650815181101515610e9a57fe5b9060200101907effffffffffffffffffffffffffffffffffffffffffffffffffffffffffffff1916908160001a905350610e38565b60018401604051805910610ee05750595b9080825280601f01601f19166020018201604052509150600090505b8381111515610fab5784818503815181101515610f1557fe5b9060200101517f010000000000000000000000000000000000000000000000000000000000000090047f0100000000000000000000000000000000000000000000000000000000000000028282815181101515610f6e57fe5b9060200101907effffffffffffffffffffffffffffffffffffffffffffffffffffffffffffff1916908160001a9053508080600101915050610efc565b819650505050505050919050565b6060604051908101604052806003905b610fd1611165565b815260200190600190039081610fc95790505090565b60c06040519081016040528060008152602001611002611165565b815260200161100f611165565b815260200161101c611165565b815260200160008152602001600081525090565b828054600181600116156101000203166002900490600052602060002090601f016020900481019282601f1061107157805160ff191683800117855561109f565b8280016001018555821561109f579182015b8281111561109e578251825591602001919060010190611083565b5b5090506110ac9190611179565b5090565b8154818355818115116110d7578183600052602060002091820191016110d69190611179565b5b505050565b602060405190810160405280600081525090565b82805482825590600052602060002090810192821561112c579160200282015b8281111561112b578251825591602001919060010190611110565b5b5090506111399190611179565b5090565b602060405190810160405280600081525090565b602060405190810160405280600081525090565b602060405190810160405280600081525090565b61119b91905b8082111561119757600081600090555060010161117f565b5090565b90565b600082601f830112600081146111b3576111b8565b600080fd5b5081356111cc6111c782611a2c565b6119f6565b915080825260208301602083018583830111600181146111eb576111f0565b600080fd5b506111fc838284611af0565b50505092915050565b60006112118235611ae6565b905092915050565b60006020828403126001811461122e57611233565b600080fd5b50600082013567ffffffffffffffff81116001811461125157611256565b600080fd5b506112638482850161119e565b91505092915050565b6000806040838503126001811461128257611287565b600080fd5b50600083013567ffffffffffffffff8111600181146112a5576112aa565b600080fd5b506112b78582860161119e565b925050602083013567ffffffffffffffff8111600181146112d7576112dc565b600080fd5b506112e98582860161119e565b9150509250929050565b6000806000806080858703126001811461130c57611311565b600080fd5b50600085013567ffffffffffffffff81116001811461132f57611334565b600080fd5b506113418782880161119e565b945050602085013567ffffffffffffffff81116001811461136157611366565b600080fd5b506113738782880161119e565b935050604085013567ffffffffffffffff81116001811461139357611398565b600080fd5b506113a58782880161119e565b925050606085013567ffffffffffffffff8111600181146113c5576113ca565b600080fd5b506113d78782880161119e565b91505092959194509250565b600080600080600060a086880312600181146113fe57611403565b600080fd5b50600086013567ffffffffffffffff81116001811461142157611426565b600080fd5b506114338882890161119e565b955050602061144488828901611205565b945050604086013567ffffffffffffffff81116001811461146457611469565b600080fd5b506114768882890161119e565b935050606086013567ffffffffffffffff8111600181146114965761149b565b600080fd5b506114a88882890161119e565b925050608086013567ffffffffffffffff8111600181146114c8576114cd565b600080fd5b506114da8882890161119e565b9150509295509295909350565b6000602082840312600181146114fc57611501565b600080fd5b50600061151084828501611205565b91505092915050565b600080600080600080600060e0888a0312600181146115375761153c565b600080fd5b50600061154b8a828b01611205565b975050602088013567ffffffffffffffff81116001811461156b57611570565b600080fd5b5061157d8a828b0161119e565b965050604061158e8a828b01611205565b955050606088013567ffffffffffffffff8111600181146115ae576115b3565b600080fd5b506115c08a828b0161119e565b945050608088013567ffffffffffffffff8111600181146115e0576115e5565b600080fd5b506115f28a828b0161119e565b93505060a088013567ffffffffffffffff81116001811461161257611617565b600080fd5b506116248a828b0161119e565b92505060c06116358a828b01611205565b91505092959891949750929550565b600061164f82611a8a565b8360208202850161165f85611a61565b60005b8481101561169857838303885261167a838351611749565b925061168582611ab6565b9150602088019750600181019050611662565b508196508694505050505092915050565b60006116b482611a95565b8084526020840193506116c683611a6b565b60005b828110156116f8576116dc868351611805565b6116e582611ac3565b91506020860195506001810190506116c9565b50849250505092915050565b61170d81611ad0565b82525050565b600061171e82611aab565b808452611732816020860160208601611aff565b61173b81611b32565b602085010191505092915050565b600061175482611aa0565b808452611768816020860160208601611aff565b61177181611b32565b602085010191505092915050565b60008154600181166000811461179c57600181146117bc576117fd565b607f600283041680865260ff1983166020870152604086019350506117fd565b600282048086526020860195506117d285611a78565b60005b828110156117f4578154818901526001820191506020810190506117d5565b80880195505050505b505092915050565b61180e81611adc565b82525050565b6000602082019050818103600083015261182e8184611644565b905092915050565b6000602082019050818103600083015261185081846116a9565b905092915050565b600060208201905061186d6000830184611704565b92915050565b6000602082019050818103600083015261188d8184611713565b905092915050565b60006020820190506118aa6000830184611805565b92915050565b60006060820190506118c56000830186611805565b81810360208301526118d7818561177f565b905081810360408301526118eb818461177f565b9050949350505050565b600060c08201905061190a6000830189611805565b818103602083015261191c818861177f565b90508181036040830152611930818761177f565b90508181036060830152611944818661177f565b90506119536080830185611805565b61196060a0830184611805565b979650505050505050565b600060e082019050611980600083018a611805565b8181036020830152611992818961177f565b90506119a16040830188611805565b81810360608301526119b3818761177f565b905081810360808301526119c7818661177f565b905081810360a08301526119db818561177f565b90506119ea60c0830184611805565b98975050505050505050565b6000604051905081810181811067ffffffffffffffff82111760018114611a1c57611a21565b600080fd5b508060405250919050565b600067ffffffffffffffff821160018114611a4657611a4b565b600080fd5b50601f19601f8301169050602081019050919050565b6000819050919050565b6000602082019050919050565b60008160005260206000209050919050565b600060039050919050565b600081519050919050565b600081519050919050565b600081519050919050565b6000602082019050919050565b6000602082019050919050565b60008115159050919050565b6000819050919050565b6000819050919050565b82818337600083830152505050565b60005b83811015611b1d578082015181840152602081019050611b02565b83811115611b2c576000848401525b50505050565b6000601f19601f83011690509190505600a265627a7a72305820b82c825044d2bcdf1e9316b6b9fa3f2e12aebc10efa7ccd6e2702caffb3242d86c6578706572696d656e74616cf50037",
  "source": "pragma solidity ^0.4.2;\npragma experimental ABIEncoderV2;\n\ncontract Health {\n    struct Patient {\n        uint id;\n        string name;\n        uint age;\n        string nationality;\n        string city;\n        string country;\n        uint balance;\n        uint[] diseases;\n        // mapping(string => Disease) diseases;\n    }\n\n    struct Disease {\n        uint id;\n        string name;\n        string symptoms;\n        string doctor;\n        uint date;\n        uint price;\n    }\n\n    struct Doctor {\n        uint id;\n        string name;\n        string hospital;\n    }\n    \n    mapping (uint => Doctor) public doctors;\n    mapping (uint => Patient) public patients;\n    mapping (uint => Disease) public diseases;\n    uint public patientsCount;\n    uint public doctorsCount;\n    uint public diseasesCount;\n\n    // Constructor\n    function Health() public {\n        patientsCount = 0;\n        doctorsCount = 0;\n        \n        addPatient(\"Ben\", 17, \"Canada\", \"Toronto\", \"Canada\");\n        addPatient(\"Adam\", 22, \"France\", \"Paris\", \"Germany\");\n        addDoctor(\"Philip\", \"Hospital 1\");\n    }\n    // addPateint\n    // test data: \"Amine\", 20, \"Morocco\", \"Karlsruhe\", \"Germany\"\n    function addPatient(string _name, uint _age, string _nationality, string _city, string _country) public {\n        patientsCount++;\n        uint[] memory _diseases;\n        patients[patientsCount] = Patient(patientsCount, _name, _age,\n                                          _nationality, _city, _country, 0, _diseases);\n    }\n\n    // addDisease\n    // TODO: Please solidity implement string arrays!! Now, I need to do a dirty hack on the client now\n    // test data: \"Ben\", \"Cancer\", \"symptom 1\", \"Philip\"\n    // TODO: fix the vanishing array issue\n    function addDiseaseToPatient(string _patientName, string _name, string _symptoms, string _doctor) public {\n        // get patient ID\n        uint _patientId = getPatientIdByName(_patientName);\n        // get the index of the last disease and increment it\n        diseasesCount++;\n        Disease memory d = Disease(diseasesCount, _name, _symptoms, _doctor, now, 15500000000000000);\n        diseases[diseasesCount] = d;\n        patients[_patientId].diseases.push(diseasesCount);\n    }\n    \n    //addDoctor\n    // test data: \"Philip\", \"hospital 100\"\n    function addDoctor(string _name, string _hospital) {\n        doctorsCount++;\n        doctors[doctorsCount] = Doctor(doctorsCount, _name, _hospital);\n    }\n\n    // editPatient\n    // test data: 1, \"Ben\", 90, \"UK\", \"London\", \"UK\", 10\n    function editPatient(uint _id, string _name, uint _age, string _nationality, string _city, string _country, uint _balance) public returns(bool) {\n        uint[] memory _diseases = getPatientDiseasesIds(_id);\n        patients[_id] = Patient(_id, _name, _age, _nationality, _city, _country, _balance, _diseases);\n        return true;\n    }\n\n    // test data: 1\n    function getPatientDiseasesIds(uint _id) returns(uint[]) {\n        uint[] _diseasesArray = patients[_id].diseases;\n        return _diseasesArray;\n    }\n\n    // test data: \"Ben\"\n    function getPatientIdByName(string _name) public returns(uint) {\n        for (uint i = 1; i <= patientsCount; i++) {\n            if (keccak256(patients[i].name) == keccak256(_name)) {\n                return i;\n            }\n        }\n        return 0;\n    }\n\n    // test data: \"Philip\"\n    function getDoctorIdByName(string _name) public returns(uint) {\n        for (uint j = 0; j <= doctorsCount; j++) {\n            if (keccak256(doctors[j].name) == keccak256(_name)) {\n                return j;\n            }\n        }\n        return 0;\n    }\n\n    // lookupPatient\n    function getPatientByName(string _name) public returns(string[3]) {\n        for (uint x = 0; x <= patientsCount; x++) {\n            if (keccak256(patients[x].name) == keccak256(_name)) {\n                return [patients[x].name, uintToString(patients[x].age), patients[x].country];\n            }\n        }\n    }\n    \n    function uintToString(uint v) public constant returns (string str) {\n        uint maxlength = 100;\n        bytes memory reversed = new bytes(maxlength);\n        uint i = 0;\n        while (v != 0) {\n            uint remainder = v % 10;\n            v = v / 10;\n            reversed[i++] = byte(48 + remainder);\n        }\n        bytes memory s = new bytes(i + 1);\n        for (uint j = 0; j <= i; j++) {\n            s[j] = reversed[i - j];\n        }\n        str = string(s);\n    }\n}\n\n\n\n\n// contract BuyRecord is EditRecord {\n//     // Query patiences WIP\n//     function getPatientsPrice(string _disease) private view returns (uint) {\n//         uint buyingPrice;\n//         for (uint x = 1; x <= patientsCount; x++) {\n//             buyingPrice += patients[x].diseases[_disease].price;\n//         }\n//         return buyingPrice;\n//     }\n\n//     Buy Patiences data\n//     function buyPatientsData(string _disease) public returns (uint price, uint numberOfPatients, string[] diseaseCountries, string[] diseaseCities) {\n//         for (uint i = 0; i <= patientsCount; i++) {\n//             if (patients[i].diseases[_disease].name != \"\") {\n//                 price += patients[i].diseases[_disease].price;\n//                 numberOfPatients += 1;\n//                 diseaseCountries.push(patients[i].country);\n//                 diseaseCities.push(patients[i].city);\n//             }\n//         }\n//     }\n// }\n",
  "sourcePath": "/Users/amineafia/Documents/dapps/hexchain/contracts/Health.sol",
  "compiler": {
    "name": "solc",
    "version": "0.4.19+commit.c4cbbb05.Emscripten.clang"
  },
  "schemaVersion": "2.0.0",
  "updatedAt": "2018-03-17T16:32:33.338Z"
}